:1000000088B70400000000000000000000000000AD
:1000100000000000000000000000000000000000E0
:1000200000000000000000000000000000000000D0
:1000300000000000000000000000000000000000C0
:1000400000000000000000000000000000000000B0
:1000500000000000E2B60000000000000000000008
:100060000000000000000000000000000000000090
:100070000000000000000000000000000000000080
:100080000000000000000000000000000000000070
:100090000000000000000000000000000000000060
:1000A000000000000000000000000000A2B70000F7
:1000B0000000000000000000000000000000000040
:1000C0000000000000000000000000000000000030
:1000D0000000000000000000000000000000000020
:1000E0000000000000000000000000000000000010
:020000040001F9
:106F10008F802200F0FF240020A0B7002020200056
:106F200032A0B700400020004420B700EEB70200B6
:106F3000000000000AFF07006BFF0700FEFF37009C
:046F4000FFFF370018
:106B60005400FA008A1F78008B1F78008C1F780071
:106B70008D1F7800B0FE07002D0020008C01200042
:106B80001620EF000A02200000102000801F78006D
:106B90000020EF00801F78000020EF00801F7800A9
:106BA0000020EF00801F78007FFD07008F00B100FC
:106BB000A7FE07004AC0B300B3FF07002AC2B30014
:106BC00020FF0700E0004700404C28002900090092
:106BD000B01878006000470000057800B4E50700B1
:106BE000E0004700206B280001000900B018780081
:106BF000600047000005780005E50700E000470059
:106C0000906B280001000900B05878006000470030
:106C10000005780015E50700E0004700A0642800A3
:106C200006000900B01878006000470000057800F1
:106C300020E50700E0004700E06A280003000900A3
:106C4000B05878006000470000057800FEFC07009F
:106C5000E0004700606B280002000900B05878008F
:106C600060004700000578001CFD0700E0004700B9
:106C7000006128000B000900B01878006000470090
:106C8000000578002CFD0700E0004700805F280029
:106C90000B000900B018780060004700000578007C
:106CA000CBE50700E6E507004ACA2100DBFC070048
:106CB000CF0678004F067800CF0578004F057800A2
:086CC0000080FA00000006004C
:106638004004200046A7B7004427EF000E2EEF00C5
:086648001E2EEF000000060009
:1061A8000000FA00CEB897003EBA97002EB99700C3
:1061B8009EB997004022EF004222EF0080AC2300F6
:1061C800E0B28800F0FF2F0060A688000B00750081
:1061D8000C0070000D0070000100700004007000D9
:1061E80082007000202420000388700040C2A900AB
:0C61F80041E2A8000080FA000000060050
:106650000000FA008A1F78008B1F78008C1F7800DA
:10666000710F21000020EF0080487800D105210043
:106670000020EF00804878000020EF0010BD880067
:10668000F10621000020EF0080487800C1072100BA
:10669000F0CFB300804878004C0020001620EF00B7
:1066A000EA6521008DE50700EC0020001620EF00D0
:1066B000EA64210089E507008C1720001620EF000E
:1066C0006A4D210085E507000C1420001620EF001C
:1066D0002A66210081E507001FE50700A166210069
:1066E000F0CFB3008048780081672100F0CFB3007D
:1066F0008048780000F42100A0B3880010CEA900E3
:1067000014CEA900102EA900142EA80014CEA900A2
:10671000B0E5070014CEA800AEE507001420EF0096
:10672000A8E50700BEE407006004E10002003200B3
:10673000F0CFB300000037004F067800CF05780097
:0C6740004F0578000080FA000000060001
:020000040000FA
:10FCDC000000FA000A0178008C00780061005600E0
:10FCEC00000678000200E200030032000B497800A5
:10FCFC000420EC00F8FF37000A0078000080FA00BE
:04FD0C0000000600ED
:10FB58000000FA008A1F78008B1F78008C1F78003D
:10FB6800A1792100F0CFB30080487800F0FF2F0082
:10FB7800F10F2000D0B38800E1B38800E1672100CD
:10FB8800F0CFB30080487800F1672100F0CFB300D0
:10FB9800804878000020EF000220EF0000B48800C1
:10FBA80011B4880041682100F0CFB3008048780084
:10FBB800516821000020EF0080487800616821002A
:10FBC8000020EF00804878000001200040B4880041
:10FBD8000001200050B48800416921000020EF0096
:10FBE800804878000020EF0060B488000020EF0013
:10FBF80070B48800E0BC800080B48800F0BC80004D
:10FC080090B48800516921000020EF0080487800F6
:10FC18000C102000FBCFB300AA6921002D000700BB
:10FC28004C0020001620EF006A6921002900070017
:10FC38004F067800CF0578004F0578000080FA005D
:04FC480000000600B2
:10FDD40068012000C7CC25000E20ED00FEFF3A008C
:10FDE4001020ED00FCFF3A000000000000000000BD
:04FDF4000000060005
:10FDC4000000FA001AE507000080FA0000000600AF
:00FDD4002F
:109234000000FA008A1F7800142EA9001440E200EE
:1092440007003A000A85FB00E0B28000000001003C
:109254001420EF00E0B28000000001000600370097
:10926400010420000A80FB000080700000057800E3
:10927400E0B28000000001001420EF00E0B28000A2
:1092840000000100142EA800D11A07004F05780031
:089294000080FA000000060052
:107590000000FA0040C2A9004022AE0001003700FE
:1075A000FDFF37004A1288004002AF00010037009B
:1075B000FDFF37004882BF000080FA00000006008F
:0075C000CB
:107120000000FA0060C2A9006022AE000100370032
:10713000FDFF37004A1388006002AF0001003700EE
:10714000FDFF37006882BF000080FA0000000600E3
:007150003F
:10FA20000000FA008A1F78008B1F78008C1F780076
:10FA30001CC0B300CA4122000B0120001CE60700D5
:10FA40006004E10002003200F0CFB3001D00370077
:10FA50001820EF004A4E22000B0120009BE6070011
:10FA60006004E10002003200F0CFB300150037005F
:10FA70001820EF008A4E22000B01200093E60700B9
:10FA80006004E10002003200F0CFB3000D00370047
:10FA90001820EF00CA4122000B01200004E60700F5
:10FAA0006004E10002003200F0CFB300050037002F
:10FAB0000000280001012000F082880001838800F6
:10FAC0000020EF004F067800CF0578004F05780042
:08FAD0000080FA0000000600AE
:1092B0000000FA008A1F78008B1F78008C1F78004E
:1092C000A3F707004F0678006004E10002003200B7
:1092D000F0CFB300040037000C4578004CFA0700CB
:1092E0000FFB07000020EF00CF0578004F05780046
:0892F0000080FA0000000600F6
:107150000000FA008A1F78008B1F78008C1F7800CF
:1071600020662100104078006004E1000E0032002B
:1071700020662100104078006204E10006003A0019
:10718000406621003050E10020D8E10002003A00C2
:107190000020EF0008003700CACEB30081FF0700CF
:1071A000F0CFB30004003700142EA9001CC0B300B8
:1071B00081FF07000020EF004F067800CF05780020
:0C71C0004F0578000080FA000000060077
:106FA4000000FA00700F21000A4878000080FA00FF
:046FB40000000600D3
:106FB8000400FA000A0798001B0798006164E100C2
:106FC8000E003A002166210020C0B30080487800F6
:106FD8006000470000A0EC009080FB000008200043
:106FE800008070008A9FBE0000057800E0B2800033
:106FF800000001004F05BE000A003700216621008D
:1070080010C0B300804878006000470000A0EC0082
:107018008A9FBE001085FB00E0B2800000000100DE
:107028004F05BE00600047000020EC008A9FBE00AC
:107038001085FB00E0B28000000001000E459000C2
:107048000A85FB00E0B28000000001004F05BE0089
:107058002AB388003BB388000080FA0000000600CD
:0070680028
:107C10000000FA008A1F78002066210010407800DA
:107C20006204E10004003200BACEB300DDFC0700BC
:107C3000F0CFB300190037000A85FB00E0B28000E6
:107C40000000010020B3800031B3800061004000DB
:107C5000E080480020B3880031B38800007A21001A
:107C6000104078006204E1000B003A00F4FF2000AD
:107C7000050020004066210030016200A081620002
:107C8000000028000101200002004000838048001D
:107C900020B3880031B388000020EF004F05780042
:087CA0000080FA00000006005C
:107F20000000FA00142EA800216621000020EF00B6
:0C7F3000804878000080FA000000060085
:1094CC000000FA008A1F78008B1F78008C1F780030
:1094DC001CF707004F0678006004E1000200320020
:1094EC00F0CFB300040037000C057800EBF907004F
:1094FC0088FA07000020EF00CF0578004F057800B0
:08950C000080FA0000000600D7
:107CA8000000FA008A1F7800206621001040780042
:107CB8006204E10004003200BACEB300B7FC07004A
:107CC800F0CFB300200037008A1F78000A85FB0038
:107CD800E0B28000000001004F057800400120005C
:107CE8000020EC001085FB00E0B2800000000100DD
:107CF80020B3800031B3800062004000E08048007B
:107D080020B3880031B38800007A21001040780041
:107D18006204E1000B003A00F4FF20000500200097
:107D28004066210030016200A08162000000280046
:107D380001012000020040008380480020B3880031
:107D480031B388000020EF004F0578000080FA006A
:047D58000000060021
:020000040001F9
:106A88000000FA00E9C907000080FA0000000600CB
:006A9800FE
:106844000000FA007ACA07000080FA00000006007F
:0068540044
:1002B0000000FA008A1F78008B1F78008C1F7800DE
:1002C0001400E20004003A00CAC9B30035DB07009D
:1002D000F0CFB300390037008A1F78000A06780093
:1002E000CA4022000B01200000012000CF80DE0068
:1002F000809FBE00B0FD07004F00B1004F057800A1
:100300006004E10002003200F0CFB3002B003700A0
:10031000700045008A1F7800000678008A4222009B
:100320000B01200080022000CF80DE00809FBE00F5
:10033000A1FD07004F00B1004F0578006004E10007
:1003400002003200F0CFB3001C0037008003200011
:10035000000045008A1F7800000678004A45220008
:100360000B012000C0012000CF80DE00809FBE0076
:1003700091FD07004F00B1004F0578006004E100D7
:1003800002003200F0CFB3000C003700F800450047
:1003900011007800E0BC88001100780060B188008E
:1003A000C00220008000450011007800F0BC8800E9
:1003B0001100780070B188000020EF004F0678002F
:1003C000CF0578004F0578000080FA000000060095
:0003D0002D
:020000040000FA
:10F9B8000000FA008A1F78008B1F78008C1F7800DF
:10F9C8003EB89700CEB8970030BF9F0041BF9F0058
:10F9D8008C1F7800DCDD07004F0678006004E1002A
:10F9E80002003200F0CFB300060037000C057800A3
:10F9F800BEBD97004EBE970099F0070046E107008C
:10FA08000020EF004F067800CF0578004F057800FA
:08FA18000080FA000000060066
:10BC68000000FA008A1F7800206621001040780042
:10BC78006204E10004003200BACEB300C7EC07004A
:10BC8800F0CFB3002900370042662100328045001A
:10BC9800A2004E0020B3880031B38800007A21004A
:10BCA800104078006204E1000B003A00F4FF200025
:10BCB800050020004066210030016200A08162007A
:10BCC8000000280001012000020040008380480095
:10BCD80020B3880031B388000B0178008C0178000C
:10BCE80061805500E0005E0080057800010678005C
:10BCF800028071000C0032008B1F78008C1F7800C6
:10BD08008A1F78001A85FB00E0B28000000001005D
:10BD18004F0578004F067800CF0578006100450090
:10BD280000057800ECFF37000020EF004F05780091
:08BD38000080FA000000060083
:020000040001F9
:100010000000FA008A1F78008B1F78001400E200AD
:1000200004003A00CAC9B300DEDB0700F0CFB3001A
:100030000A003700E20045001A0078009145780078
:100040000005780012FF07006004E10002003200A2
:10005000F0CFB300010037000020EF00CF0578009B
:0C0060004F0578000080FA000000060048
:020000040000FA
:10FC90000000FA008A1F78008B1F7800C5ED07006E
:10FCA000CF0578006004E10002003200F0CFB3001D
:10FCB000070037000B457800A5EF07006004E1005E
:10FCC00002003200F0CFB300010037000020EF0047
:0CFCD0004F0578000080FA0000000600DC
:10B3B4000000FA008A1F78008B1F78008C1F780029
:10B3C4000A0678000A4C22000B0120003EF8070010
:10B3D4006004E10002003200F0CFB3000100370046
:10B3E4000020EF004F067800CF0578004F05780065
:08B3F4000080FA0000000600D1
:10BB50000000FA008A1F78008B1F78008C1F780085
:10BB60000A86FB004A4C22000B01200057F6070012
:10BB70006004E10002003200F0CFB30001003700A2
:10BB80000020EF004F067800CF0578004F057800C1
:08BB90000080FA00000006002D
:020000040001F9
:10006C000000FA008A1F78008B1F78001400E20051
:10007C0004003A00CAC9B300C7DB0700F0CFB300D5
:10008C0005003700E10045001A40780091457800E2
:10009C0000457800EAFE0700CF0578004F05780090
:0800AC000080FA0000000600CC
:020000040000FA
:10FC4C000000FA008A1F78000B4578007BF0070053
:10FC5C004F0578006004E10002003200F0CFB300E1
:10FC6C0006003700B8F107006004E1000200320022
:10FC7C00F0CFB300010037000020EF000080FA0045
:04FC8C00000006006E
:10BE48000000FA008A1F78008B1F78008C1F78008A
:10BE58000A4678000A4922000B01200012F5070063
:10BE68006004E10002003200F0CFB30001003700A7
:10BE78000020EF004F067800CF0578004F057800C6
:08BE88000080FA000000060032
:10C354000000FA008A1F78008B1F78008C1F780079
:10C364000A467800CA4822000B012000CFF30700D8
:10C374006004E10002003200F0CFB3000100370096
:10C384000020EF004F067800CF0578004F057800B5
:08C394000080FA000000060021
:020000040001F9
:1000B4000000FA008A1F78008B1F78008C1F7800DC
:1000C4008D1F78001400E20004003A00CAC9B3008E
:1000D400B3DB0700F0CFB300280037006C00450005
:1000E400904278006A00450010427800E80145001B
:1000F400640145001A00BE008A1F78001206BE0083
:100104000005BE000580FB00801F78000480FB0012
:10011400801F7800931F780026FD07006F00B10050
:100124004F0578006004E10002003200F0CFB30014
:10013400120037006B0045008A1F780010457800D4
:1001440003FF07004F0578006004E100020032005D
:10015400F0CFB300090037006D0045001004E00043
:10016400050032005BFE07006004E100020032007B
:10017400F0CFB300010037000020EF00CF06780075
:100184004F067800CF0578004F0578000080FA000C
:040194000000060061
:020000040000FA
:10F5B8000000FA008A1F78008B1F78004EB8970069
:10F5C80040BF9F006EF0970060F79F004EF09700D5
:10F5D80040F79F008C9FBE00C7EB07004F06BE0098
:10F5E8006004E10002003200F0CFB30019003700D8
:10F5F8000C05BE00A6EB07006004E1000200320023
:10F60800F0CFB300130037004EBD970066EC07003B
:10F618006004E10002003200F0CFB3000D003700B3
:10F628006EF5970047EC07006004E1000200320025
:10F63800F0CFB300070037004EF597007BEB0700CB
:10F648006004E10002003200F0CFB300010037008F
:10F658000020EF00CF0578004F0578000080FA0001
:04F668000000060098
:10A500000000FA008C1F78008D1F7800C0662100C3
:10A510003050E10020D8E1000C0032008A9FBE00DC
:10A520000A06BE004A4A22000B01200052F307002F
:10A530004F05BE006004E10002003200F0CFB3001E
:10A54000050037006AB388007BB388007AB28800C0
:10A550008BB288000020EF00CF0678004F0678000D
:08A560000080FA000000060073
:107278000000FA008A1F78008B1F78008C9FBE00E0
:10728800B1FF07004F06BE006004E10002003200B3
:10729800F0CFB300040037000C05BE00A5FE0700C0
:1072A8001D0307000020EF00CF0578004F05780088
:0872B8000080FA00000006004E
:106D3C000000FA008A1F78008B1F78002066210063
:106D4C00104078006204E10004003200BACEB300B7
:106D5C0091000700F0CFB3002E0037008A9FBE00D1
:106D6C000A85FB00E0B28000000001004F05BE0068
:106D7C00400120000020EC008A9FBE001085FB0023
:106D8C00E0B28000000001004F05BE004001200071
:106D9C0000A0EC008A9FBE001085FB00E0B28000D2
:106DAC00000001004F05BE004001200063004000C0
:106DBC001085FB00E0B280000000010020B38000D1
:106DCC0031B3800064004000E080480020B38800AC
:106DDC0031B38800007A2100104078006204E10091
:106DEC000B003A00F4FF2000050020004066210053
:106DFC0030016200A0816200000028000101200027
:106E0C00020040008380480020B3880031B3880022
:106E1C000020EF00CF0578004F0578000080FA00C5
:046E2C00000006005C
:10A498000000FA008C1F78008D1F780000672100EB
:10A4A8003050E10020D8E1000C0032008A9FBE0045
:10A4B8000A06BE008A4A22000B0120006CF307003E
:10A4C8004F05BE006004E10002003200F0CFB30087
:10A4D800050037008AB388009BB388009AB28800C9
:10A4E800ABB288000020EF00CF0678004F06780056
:08A4F8000080FA0000000600DC
:10A7B0000000FA008B1F78008C1F78004067210092
:10A7C0001050E1000B0032008A1F78000A06780062
:10A7D0000A4B22000B0120003CFB07004F057800CC
:10A7E0006004E10002003200F0CFB3000300370044
:10A7F000AAB38800BAB288000020EF004F067800A4
:0CA80000CF0578000080FA000000060080
:10A74C000000FA008B1F78008C1F780060672100D6
:10A75C001054E1000C0032008A1F78000A46780081
:10A76C004A4B22000B012000CEFA07004F0578005F
:10A77C006004E10002003200F0CFB30005003700A6
:10A78C00606721000A487800806521000A4878003B
:10A79C000020EF004F067800CF0578000080FA000B
:04A7AC0000000600A3
:10A434000000FA008B1F78008C1F780080672100D1
:10A444001054E1000C0032008A1F78000A4678009C
:10A45400CA4722000B01200094FB07004F05780037
:10A464006004E10002003200F0CFB30005003700C1
:10A47400806721000A487800A06521000A48780016
:10A484000020EF004F067800CF0578000080FA0026
:04A4940000000600BE
:10FD54000000FA008B1F78008C1F78006054E100CB
:10FD64000260EF00010032000260EC0001457800FF
:10FD740070672100100CE1000C0032008A1F78002B
:10FD84000A4678008A4B22000B01200047E5070051
:10FD94004F0578006004E10002003200F0CFB300A8
:10FDA40003003700706721000A4878000020EF0044
:10FDB4004F067800CF0578000080FA0000000600A6
:00FDC4003F
:10FAD8000000FA008A1F78008B1F78008C1F7800BE
:10FAE80002662100F1652100E065210012467800D8
:10FAF80091457800104578007EE907006004E10030
:10FB080002003200F0CFB3000C0037001CC0B30075
:10FB18008A4822000B012000E3E507006004E100A9
:10FB280002003200F0CFB30004003700B1662100B4
:10FB380010C0B300804878000020EF004F0678001E
:10FB4800CF0578004F0578000080FA000000060015
:00FB5800AD
:10A0FC000000FA008A1F78008C1F78008B1F7800F4
:10A10C0002F50700CF0578004F0678006004E100E7
:10A11C0002003200F0CFB3000F0037008C1F780024
:10A12C000B4578007CF407004F0678006004E100D2
:10A13C0002003200F0CFB300070037000C45780066
:10A14C005CF407006004E10002003200F0CFB300C1
:10A15C00010037000020EF004F0578000080FA0066
:04A16C0000000600E9
:107518000000FA008B1F78008C1F7800806621001D
:107528001054E10011003200F06521001080FB00CA
:10753800C800DD000A80FB00008070008A1F780008
:10754800000678004A4822000B012000DD070700EA
:107558004F0578006004E10002003200F0CFB3006C
:1075680005003700806621000A487800E0652100A0
:107578000A4878000020EF004F067800CF05780011
:087588000080FA00000006007B
:107324000000FA008B1F78008C1F78009066210003
:107334001054E100110032000A80FB00C800DD0097
:10734400E06521001080FB00008070008A1F780037
:10735400000678004A4822000B0120005A08070062
:107364004F0578006004E10002003200F0CFB30062
:1073740005003700906621000A487800F065210076
:107384000A4878000020EF004F067800CF05780007
:087394000080FA000000060071
:1072C0000000FA008B1F78008C1F7800A066210058
:1072D0001054E1000C0032008A1F78000A46780042
:1072E0000A4822000B012000F10707004F05780033
:1072F0006004E10002003200F0CFB3000500370067
:10730000A06621000A487800006621000A4878003B
:107310000020EF004F067800CF0578000080FA00CB
:047320000000060063
:020000040001F9
:106048000000FA008A1F78008B1F78008C1F7800E8
:106058001400E20004003A00CAC9B300CFC3070025
:10606800F0CFB3001600370062014500E10045009B
:106078001A4078008A1F7800124678009145780007
:10608800004578001BD007004F0578006004E10048
:1060980002003200F0CFB30009003700630045006A
:1060A8001004E0000500320089E607006004E10002
:1060B80002003200F0CFB300010037000020EF00EB
:1060C8004F067800CF0578004F0578000080FA0069
:0460D80000000600BE
:1060DC000000FA008A1F78008B1F78001400E20081
:1060EC0004003A00CAC9B300ABC30700F0CFB30039
:1060FC000A003700E10045001A407800914578000D
:10610C0000457800FFE607006004E1000200320061
:10611C00F0CFB300010037000020EF00CF0578006E
:0C612C004F0578000080FA00000006001B
:020000040000FA
:10FD10000000FA008A1F78000B45780014E90700FC
:10FD20006004E10002003200F0CFB30006003700AB
:10FD300040ED07006004E10002003200F0CFB300A4
:10FD4000010037000020EF004F0578000080FA0026
:04FD500000000600A9
:10A170000000FA008A1F78008B1F78008C1F78007F
:10A180000A4678000A4A22000B01200048FC07001A
:10A190006004E10002003200F0CFB300010037009C
:10A1A0000020EF004F067800CF0578004F057800BB
:08A1B0000080FA000000060027
:10B234000000FA008A1F78008B1F78008C1F7800AA
:10B244001CC0B300CA4922000B01200017F80700F4
:10B254006004E10002003200F0CFB30001003700C7
:10B264000020EF004F067800CF0578004F057800E6
:08B274000080FA000000060052
:020000040001F9
:106138000000FA008A1F78008B1F78008C1F7800F7
:106148001400E20004003A00CAC9B30093C3070070
:10615800F0CFB3000D0037000A0678000A4F22007E
:106168000B01200080012000CF80DE00809FBE0050
:106178000FE607004F00B1006004E10002003200A2
:10618800F0CFB300010037000020EF004F06780081
:10619800CF0578004F0578000080FA00000006005F
:0061A800F7
:1003D0000000FA008A1F78008B1F78008C1F7800BD
:1003E0001400E20004003A00CAC9B300EDDA0700C5
:1003F000F0CFB3000D0037000A067800CA51220082
:100400000B01200080012000CF80DE00809FBE0015
:1004100069FD07004F00B1006004E10002003200F6
:10042000F0CFB300010037000020EF004F06780046
:10043000CF0578004F0578000080FA000000060024
:00044000BC
:10044000F0FF2F0020E58800001E200030E5880026
:100450000011200040E58800A1CA210040C0B3007F
:1004600080487800B1CA21000020EF008048780061
:100470000020EF000220EF0060E5880071E58800B1
:1004800001CB21000020EF00804878000020EF0021
:100490000220EF0090E58800A1E5880061CB2100F3
:1004A0000020EF00804878000020EF000220EF00DD
:1004B000C0E58800D1E58800C1CB21000020EF0015
:1004C000804878000020EF000220EF00F0E588006F
:1004D00001E6880021CC21000020EF008048780050
:1004E0000020EF000220EF0020E6880031E68800BF
:1004F00081CC21000020EF00804878000020EF0030
:100500000220EF0050E6880061E68800E1CC21007F
:100510000020EF00804878000020EF000220EF006C
:1005200080E6880091E6880041CD210010C0B3002C
:1005300080487800C0CC280021202000B0E6880048
:10054000C1E68800A1CD21000020EF00804878009E
:100550000020EF000220EF00E0E68800F1E68800CE
:1005600001CE210010C0B30080487800E0CC280004
:100570002120200010E7880021E7880061CE2100BB
:1005800010C0B3008048780000CD28002120200052
:1005900040E7880051E78800C1CE210010C0B300B9
:1005A0008048780020CD28002120200070E78800B6
:1005B00081E7880021CF21000020EF0080487800EB
:1005C0000020EF000220EF00A0E78800B1E78800DC
:1005D0000020EF000220EF00C0E78800D1E788008C
:1005E000C1CF21000020EF0080487800D1CF21004A
:1005F0000020EF00804878000020EF00F0E788003E
:100600000020EF0000E888000020EF0010E88800DC
:100610000020EF0020E88800F0FF2F0030E888007D
:10062000001E200040E888000011200050E88800EB
:10063000C1D02100B0C1B30080487800D1D02100E2
:100640000020EF00804878000020EF000220EF003B
:1006500070E8880081E8880021D121000020EF00A7
:10066000804878000020EF000220EF00A0E888001A
:10067000B1E8880081D1210020C0B3008048780013
:1006800060CD280021202000D0E88800E1E8880023
:10069000E1D1210020C0B30080487800A0CD28001F
:1006A0002120200000E9880011E9880041D22100C2
:1006B0000020EF00804878000020EF000220EF00CB
:1006C00030E9880041E98800A1D221000020EF0034
:1006D000804878000020EF000220EF0060E98800E9
:1006E00071E9880001D321000020EF0080487800E4
:1006F0000020EF000220EF0090E98800A1E98800C7
:1007000061D321000020EF00804878000020EF0036
:100710000220EF00C0E98800D1E98800C1D32100A0
:100720000020EF00804878000020EF000220EF005A
:10073000F0E9880001EA880021D4210080C0B300DC
:100740008048780020CE28002120200020EA880060
:1007500031EA880081D4210090C0B300804878003D
:1007600020CF28002120200050EA880061EA88007C
:10077000E1D4210060C0B3008048780040D0280058
:100780002120200080EA880091EA880041D52100DC
:100790000020EF00804878000020EF000220EF00EA
:1007A000B0EA8800C1EA88000020EF000220EF00D4
:1007B000D0EA8800E1EA8800E1D521000020EF00BE
:1007C00080487800F1D521000020EF0080487800B3
:1007D0000020EF0000EB88000020EF0010EB880005
:1007E0000020EF0020EB88000020EF0030EB8800B5
:1007F000F0FF2F0080FE8800001E200090FE880081
:1008000000112000A0FE880061FD210090C4B3000B
:100810008048780071FD210010C0B3008048780046
:10082000C0D1280021202000C0FE8800D1FE880011
:10083000C1FD210010C0B30080487800E0D128003D
:1008400021202000F0FE880001FF880021FE210009
:100850000020EF00804878000020EF000220EF0029
:1008600020FF880031FF880081FE210010C0B30006
:100870008048780020D228002120200050FF8800E6
:1008800061FF8800E1FE210020C3B30080487800AA
:1008900060D228002120200080FF880091FF88007E
:1008A00041FF210010C0B30080487800A0D8280084
:1008B00021202000B0FF8800C1FF8800A1FF210097
:1008C0000020EF00804878000020EF000220EF00B9
:1008D000E0FF8800F1FF8800010022000020EF0007
:1008E000804878000020EF000220EF00100089000F
:1008F000210089006100220010C0B3008048780008
:10090000C0D8280021202000400089005100890023
:10091000C100220070C0B30080487800E0D82800F1
:10092000212020007000890081008900210122001F
:1009300040C0B30080487800C0D9280021202000A2
:10094000A0008900B10089008101220040C0B300ED
:100950008048780040DA280021202000D00089005B
:10096000E1008900E101220030C0B3008048780036
:1009700040DB2800212020000001890011018900AE
:100980000020EF000220EF002001890031018900E2
:100990008102220010C0B30080487800910222003A
:1009A0000020EF00804878000020EF00500189000F
:1009B0000020EF00600189000020EF007001890035
:1009C0000020EF0080018900F0FF2F00601F8900E8
:1009D000001E2000701F890000112000801F890068
:1009E000213F2200D0C0B30080487800313F220070
:1009F0000020EF00804878000020EF000220EF0088
:100A0000A01F8900B11F8900813F22000020EF0054
:100A1000804878000020EF000220EF00D01F8900FE
:100A2000E11F8900E13F22000020EF0080487800AC
:100A30000020EF000220EF00002089001120890033
:100A40004140220020C0B3008048780000DC28002C
:100A5000212020003020890041208900A14022006F
:100A60000020EF00804878000020EF000220EF0017
:100A70006020890071208900014122000020EF00E0
:100A8000804878000020EF000220EF0090208900CD
:100A9000A12089006141220040C0B3008048780055
:100AA00080DC280021202000C0208900D12089007E
:100AB000C14122000020EF00804878000020EF00B4
:100AC0000220EF00F020890001218900214222004C
:100AD0000020EF00804878000020EF000220EF00A7
:100AE00020218900312189008142220060C0B300A9
:100AF0008048780000DD2800212020005021890056
:100B000061218900E14222000020EF008048780046
:100B10000020EF000220EF00802189009121890050
:100B20004143220010C0B30080487800C0DD280097
:100B300021202000B0218900C1218900A143220089
:100B40000020EF00804878000020EF000220EF0036
:100B5000E0218900F12189000020EF000220EF0050
:100B600000228900112289004144220010C0B300F4
:100B7000804878005144220010C0B30080487800BB
:100B80000020EF00302289000020EF004022890081
:100B900040102200502289000020EF0060228900CE
:100BA0004073240020088900611022000020EF001B
:100BB00080487800711022000020EF008048780003
:100BC000811022000020EF00804878009110220060
:100BD0000020EF0080487800F0FF2F0030268900C9
:100BE000001E2000402689000011200050268900A8
:100BF000C14C220090C1B30080487800D14C220043
:100C00000020EF00804878000020EF000220EF0075
:100C10007026890081268900214D22000020EF00E6
:100C2000804878000020EF000220EF00A026890015
:100C3000B1268900814D220010C0B30080487800A1
:100C400000DE280021202000D0268900E12689002E
:100C5000E14D220020C0B3008048780020DE28004B
:100C6000212020000027890011278900414E220001
:100C70000020EF00804878000020EF000220EF0005
:100C80003027890041278900A14E22000020EF0073
:100C9000804878000020EF000220EF0060278900E4
:100CA00071278900014F22000020EF008048780062
:100CB0000020EF000220EF0090278900A127890083
:100CC000614F22000020EF00804878000020EF00F4
:100CD0000220EF00C0278900D1278900C14F2200E0
:100CE0000020EF00804878000020EF000220EF0095
:100CF000F0278900012889002150220040C0B3005C
:100D000080487800A0DE28002120200020288900CB
:100D10003128890081502200D0C0B300804878007B
:100D200020DF280021202000502889006128890028
:100D3000E150220050C0B30080487800C0E0280095
:100D4000212020008028890091288900415122001B
:100D50000020EF00804878000020EF000220EF0024
:100D6000B0288900C12889000020EF000220EF0090
:100D7000D0288900E1288900E15122000020EF00FD
:100D800080487800F15122000020EF008048780070
:100D90000020EF00002989000020EF0010298900C1
:100DA0000020EF00202989000020EF003029890071
:100DB00040CA210040EE8800A1DC210010C0B30031
:100DC00080487800B1DC210010C0B3008048780072
:100DD000C1DC2100F0CFB30080487800D1DC2100D5
:100DE000F0CFB300804878006009200070EE8800E2
:100DF000900B200080EE8800A00A200090EE880072
:100E000050042000A0EE880050332000B0EE88008F
:100E1000F0E32700C0EE8800F0E32700D0EE880062
:100E2000A03D2000E0EE880020152100F0EE8800B3
:100E3000B00120000100200000EF880011EF8800C1
:100E4000F0FF2F0020EF880061DE2100B0C1B30069
:100E500080487800F0FF2F00F1FF2F0040EF88005E
:100E600051EF8800C1DE21000020EF0080487800AB
:100E7000D1DE210010C0B300804878000020EF00D0
:100E800070EF88000020EF0080EF8800800C2200C7
:100E900090EF88000020EF00A0EF8800606C240035
:100EA00040068900A10C22000020EF008048780055
:100EB000B10C220010C4B30080487800C10C22009D
:100EC00010C5B30080487800D10C2200F0CFB300E9
:100ED0008048780040CA210040EC8800A1D8210059
:100EE00020C0B30080487800B1D821000020EF0076
:100EF00080487800C1D82100F0CFB3008048780046
:100F0000D1D82100F0CFB30080487800400C2000F9
:100F100070EC8800200A200080EC8800400420004B
:100F200090EC8800F0002000A0EC88002014210044
:100F3000B0EC880081D921000020EF0080487800C3
:100F4000A001200001002000D0EC8800E1EC880026
:100F500080142000F0EC880001DA2100A0C1B30069
:100F600080487800F0FF2F00F1FF2F0010ED88007F
:100F700021ED880061DA21000020EF008048780030
:100F80000020EF0040ED88000020EF0050ED8800C9
:100F90000020EF0060ED88000020EF0070ED880079
:100FA00040CA210080ED880021DB210030C0B30061
:100FB0008048780031DB21000020EF008048780075
:100FC00041DB2100F0CFB3008048780051DB2100E5
:100FD000F0CFB3008048780020022000B0ED8800F8
:100FE000300D2000C0ED880040192000D0ED8800B1
:100FF000A0012000E0ED88000020EF00F0ED880067
:10100000C05B260000EE88000020EF0010EE880094
:101010004006200020EE880061DC21000020EF0067
:101020008048780060D0210090DF880041BF210017
:1010300080C0B3008048780051BF210010C0B300C9
:101040008048780061BF2100F0CFB300804878006D
:1010500071BF2100F0CFB30080487800E00B200082
:10106000C0DF8800C0002000D0DF8800D002200050
:10107000E0DF880010012000F0DF88001017210059
:1010800000E0880021C021000020EF0080487800A7
:10109000B00120000100200020E0880031E088003D
:1010A0008014200040E08800A1C02100B0C1B3003E
:1010B00080487800F0FF2F00F1FF2F0060E08800EB
:1010C00071E0880001C1210010C0B30080487800A1
:1010D0000020EF0090E088000020EF00A0E08800F2
:1010E0000020EF00B0E088000020EF00C0E08800A2
:1010F00060D02100B0EF880081DF210090C0B300F4
:101100008048780091DF210010C0B300804878004B
:10111000A1DF2100F0CFB30080487800B1DF2100CB
:10112000F0CFB30080487800E00B2000E0EF8800AB
:1011300040022000F0EF8800D002200000F088007C
:101140001001200010F08800F012210020F088002B
:1011500061E021000020EF0080487800B00120000D
:101160000100200040F0880051F088008014200029
:1011700060F08800E1E02100B0C1B3008048780051
:10118000F0FF2F00F1FF2F0080F0880091F0880021
:1011900041E1210010C0B300804878000020EF003A
:1011A000B0F088000020EF00C0F088000020EF00C1
:1011B000D0F088000020EF00E0F0880060D021002F
:1011C00050FA8800C1F42100A0C0B3008048780024
:1011D000D1F4210010C0B30080487800E1F4210070
:1011E000F0CFB30080487800F1F42100F0CFB300D5
:1011F00080487800E00B200080FA8800000420007E
:1012000090FA8800D0022000A0FA88001001200087
:10121000B0FA8800F0172100C0FA8800A1F521007B
:101220000020EF0080487800B0012000010020007D
:10123000E0FA8800F1FA88008014200000FB8800A2
:1012400021F62100B0C1B30080487800F0FF2F00E4
:10125000F1FF2F0020FB880031FB880081F6210080
:1012600010C0B300804878000020EF0050FB8800D9
:101270000020EF0060FB88000020EF0070FB88007A
:101280000020EF0080FB880060D0210090FB8800E8
:1012900041F72100B0C0B3008048780051F7210029
:1012A00010C0B3008048780061F72100F0CFB30090
:1012B0008048780071F72100F0CFB30080487800B3
:1012C000E00B2000C0FB880050072000D0FB880006
:1012D000E0032000E0FB880010012000F0FB880004
:1012E000F018210000FC880021F821000020EF0008
:1012F00080487800B00120000100200020FC880018
:1013000031FC88008014200040FC8800A1F82100F6
:10131000B0C1B30080487800F0FF2F00F1FF2F002C
:1013200060FC880071FC880001F921000020EF00BA
:10133000804878000020EF0090FC88000020EF003B
:10134000A0FC88000020EF00B0FC88000020EF0027
:10135000C0FC880060D0210010F9880041F2210013
:10136000C0C0B3008048780051F2210010C0B30023
:101370008048780061F22100F0CFB3008048780007
:1013800071F22100F0CFB30080487800E00B20001C
:1013900040F98800E008200050F988004000200053
:1013A00060F988001001200070F98800601E21009B
:1013B00080F9880021F321000020EF0080487800A8
:1013C000B001200001002000A0F98800B1F98800D8
:1013D00080142000C0F98800A1F32100B0C1B3003F
:1013E00080487800F0FF2F00F1FF2F00E0F988001F
:1013F000F1F9880001F4210010C0B30080487800A2
:101400000020EF0010FA88000020EF0020FA88008A
:101410000020EF0030FA88000020EF0040FA88003A
:1014200060D0210090F6880041ED2100D0C0B300CB
:101430008048780051ED210010C0B300804878004A
:1014400061ED2100F0CFB3008048780071ED2100FC
:10145000F0CFB3008048780020162000C0F6880046
:1014600020042000D0F68800D0022000E0F688009A
:1014700010012000F0F68800601C210000F78800B1
:1014800021EE21000020EF0080487800B00120000C
:101490000100200020F7880031F788008014200028
:1014A00040F78800A1EE2100B0C1B3008048780069
:1014B000F0FF2F00F1FF2F0060F7880071F7880020
:1014C00001EF210010C0B300804878000020EF0039
:1014D00090F788000020EF00A0F788000020EF00C0
:1014E000B0F788000020EF00C0F7880060D021002E
:1014F000D0F78800C1EF2100E0C0B3008048780039
:10150000D1EF210010C0B30080487800E1EF210046
:10151000F0CFB30080487800F1EF2100F0CFB300A6
:1015200080487800E00B200000F88800B00520001B
:1015300010F88800D002200020F888001001200058
:1015400030F88800601D210040F88800A1F02100DB
:101550000020EF0080487800B0012000010020004A
:1015600060F8880071F888008014200080F88800F6
:1015700021F12100B0C1B30080487800F0FF2F00B6
:10158000F1FF2F00A0F88800B1F8880081F1210058
:1015900010C0B300804878000020EF00D0F8880029
:1015A0000020EF00E0F888000020EF00F0F888004D
:1015B0000020EF0000F9880060D021009001890030
:1015C00041032200F0C0B30080487800510322009C
:1015D00010C0B3008048780061032200F0CFB30050
:1015E0008048780071032200F0CFB3008048780073
:1015F00020132000C0018900D0052000D0018900FF
:10160000D0022000E001890010012000F0018900D3
:101610006004210000028900210422000020EF0064
:1016200080487800B00120000100200020028900DD
:10163000310289008014200040028900A1042200A8
:10164000B0C1B30080487800F0FF2F00F1FF2F00F9
:1016500060028900710289000105220010C0B300F8
:10166000804878000020EF00900289000020EF0001
:10167000A00289000020EF00B00289000020EF00E6
:10168000C002890060D02100D0028900C10522007B
:1016900000C1B30080487800D105220010C0B3001B
:1016A00080487800E1052200F0CFB3008048780040
:1016B000F1052200F0CFB300804878001019200017
:1016C00000038900E005200010038900D0022000FB
:1016D000200389001001200030038900E008210068
:1016E00040038900A10622000020EF008048780016
:1016F000B00120000100200060038900710389000F
:10170000801420008003890021072200B0C1B300AB
:1017100080487800F0FF2F00F1FF2F00A003890020
:10172000B10389008107220010C0B300804878000F
:101730000020EF00D00389000020EF00E0038900C3
:101740000020EF00F00389000020EF000004890072
:1017500060D0210040EB8800A1D6210010C1B30069
:1017600080487800B1D621000020EF008048780042
:10177000C1D62100F0CFB30080487800D1D6210037
:10178000F0CFB300804878006000200070EB880044
:10179000B00B200080EB8800601D200090EB8800DB
:1017A00010052000A0EB880061D7210010C0B30015
:1017B000804878000020EF00C0EB880080612C009A
:1017C000D0EB8800C0712E00E0EB8800E1D721004B
:1017D00030C0B30080487800F1D721000020EF002E
:1017E000804878000020EF0000EC88000020EF0027
:1017F00010EC88000020EF0020EC88000020EF00B3
:1018000030EC880060D02100B0DC880081B9210074
:1018100020C1B3008048780091B921000020EF007A
:1018200080487800A1B92100F0CFB300804878004B
:10183000B1B92100F0CFB30080487800000120004A
:10184000E0DC8800000C2000F0DC8800900720001D
:1018500000DD88005004200010DD8800A03D20003D
:1018600020DD8800F0E3270030DD8800F0E327006A
:1018700040DD8800A03D200050DD8800600321008D
:1018800060DD8800B00120000100200070DD8800CC
:1018900081DD8800F0FF2F0090DD880041BB210032
:1018A000B0C1B30080487800F0FF2F00F1FF2F0097
:1018B000B0DD8800C1DD8800A1BB21000020EF0061
:1018C00080487800B1BB21000020EF0080487800FC
:1018D0000020EF00E0DD88000020EF00F0DD880050
:1018E0000020EF0000DE8800000B220010DE8800E0
:1018F000A09A240080058900210B22000020EF001F
:1019000080487800310B220010C4B3008048780072
:10191000410B220010C5B30080487800510B220013
:10192000F0CFB3008048780060D0210040DA880012
:10193000A1B4210030C1B30080487800B1B42100C7
:101940000020EF0080487800C1B42100F0CFB30040
:1019500080487800D1B42100F0CFB30080487800EF
:10196000F008200070DA8800000C200080DA88007F
:101970008008200090DA880050042000A0DA880057
:10198000A03D2000B0DA8800F0E32700C0DA88002C
:10199000F0E32700D0DA8800A03D2000E0DA8800DC
:1019A00050022100F0DA8800B00120000100200080
:1019B00000DB880011DB8800F0FF2F0020DB8800AF
:1019C00061B62100B0C1B30080487800F0FF2F005D
:1019D000F1FF2F0040DB880051DB8800C1B62100F9
:1019E0000020EF0080487800D1B621000020EF00F1
:1019F000804878000020EF0070DB88000020EF00B6
:101A000080DB88000020EF0090DB8800200C2200A3
:101A1000A0DB8800C097240010068900410C22003A
:101A20000020EF0080487800510C220010C4B30061
:101A300080487800610C220010C5B300804878000F
:101A4000710C2200F0CFB3008048780060D02100F4
:101A500060D78800E1AE210040C1B3008048780023
:101A6000F1AE21000020EF008048780001AF210096
:101A7000F0CFB3008048780011AF2100F0CFB30061
:101A8000804878004013200090D78800000C200088
:101A9000A0D78800300A2000B0D78800500420006A
:101AA000C0D7880040822900D0D78800F0E3270003
:101AB000E0D7880040432F00F0D78800A03D2000E9
:101AC00000D88800C016210010D88800B00120007E
:101AD0000100200020D8880031D88800F0FF2F00B6
:101AE00040D88800A1B02100B0C1B3008048780080
:101AF000F0FF2F00F1FF2F0060D8880071D8880018
:101B000001B121000020EF008048780011B12100D0
:101B10000020EF00804878000020EF0090D8880077
:101B20000020EF00A0D88800C00B2200B0D88800A9
:101B30000020EF00C0D8880080AB2400E0058900B9
:101B4000E10B22000020EF0080487800F10B22001A
:101B500010C4B30080487800010C220010C5B30007
:101B600080487800110C2200F0CFB3008048780044
:101B700060D02100B0DB880081B7210050C1B300E4
:101B80008048780091B7210010C0B30080487800E9
:101B9000A1B72100F0CFB30080487800B1B7210091
:101BA000F0CFB3008048780060002000E0DB8800C0
:101BB000B00B2000F0DB8800601D200000DC8800F6
:101BC0001005200010DC880041B8210010C0B300CF
:101BD000804878000020EF0030DC880080612C0015
:101BE00040DC8800C0712E0050DC8800C1B82100A4
:101BF00030C0B30080487800D1B821000020EF0049
:101C0000804878000020EF0070DC88000020EF00A2
:101C100080DC88000020EF0090DC88000020EF00CE
:101C2000A0DC880060D02100D0D88800C1B121009C
:101C300060C1B30080487800D1B1210010C0B3006A
:101C400080487800E1B12100F0CFB30080487800EF
:101C5000F1B12100F0CFB3008048780000012000EE
:101C600000D98800000C200010D9880090072000BF
:101C700020D988005004200030D98800A03D2000E1
:101C800040D98800F0E3270050D98800F0E327000E
:101C900060D98800A03D200070D98800D0152100AF
:101CA00080D98800B00120000100200090D9880070
:101CB000A1D98800F0FF2F00B0D9880081B321009E
:101CC000B0C1B30080487800F0FF2F00F1FF2F0073
:101CD000D0D98800E1D98800E1B321000020EF00CD
:101CE00080487800F1B3210010C0B300804878002C
:101CF0000020EF0000DA88000020EF0010DA8800F2
:101D0000600B220020DA88000020EF0030DA880023
:101D100080E52400B0058900810B22000020EF003F
:101D200080487800910B220010C4B30080487800EE
:101D3000A10B220010C5B30080487800B10B22002F
:101D4000F0CFB3008048780060D0210040E28800E6
:101D5000A1C4210070C1B30080487800B1C4210043
:101D60000020EF0080487800C1C42100F0CFB3000C
:101D700080487800D1C42100F0CFB30080487800BB
:101D80000001200070E28800000C200080E2880042
:101D90009007200090E2880050042000A0E2880014
:101DA000A03D2000B0E28800F0E32700C0E28800F8
:101DB000F0E32700D0E28800A03D2000E0E28800A8
:101DC000801B2100F0E28800B0012000010020000B
:101DD00000E3880011E38800F0FF2F0020E3880073
:101DE00061C62100B0C1B30080487800F0FF2F0029
:101DF000F1FF2F0040E3880051E38800C1C62100B5
:101E00000020EF0080487800D1C621000020EF00BC
:101E1000804878000020EF0070E388000020EF0089
:101E200080E38800200F220090E388000020EF006C
:101E3000A0E38800009A240090078900410F220047
:101E40000020EF0080487800510F220010C4B3003A
:101E500080487800610F220010C5B30080487800E8
:101E6000710F2200F0CFB3008048780060D02100CD
:101E7000B0E3880081C7210080C1B30080487800AA
:101E800091C7210010C0B30080487800A1C721008D
:101E9000F0CFB30080487800B1C72100F0CFB30085
:101EA00080487800F0082000E0E38800000C200063
:101EB000F0E388008008200000E48800500420003F
:101EC00010E4880050862A0020E48800F0E3270010
:101ED00030E48800503B2F0040E48800A03D200003
:101EE00050E48800C010210060E48800B0012000A8
:101EF0000100200070E4880081E48800F0FF2F00DA
:101F000090E4880041C92100B0C1B3008048780046
:101F1000F0FF2F00F1FF2F00B0E48800C1E488003B
:101F2000A1C921000020EF0080487800B1C921003C
:101F300010C0B300804878000020EF00E0E4880083
:101F40000020EF00F0E48800C00E220000E58800C9
:101F50000020EF0010E58800C09D24006007890084
:101F6000E10E22000020EF0080487800F10E2200F0
:101F700010C4B30080487800010F220010C5B300E0
:101F800080487800110F2200F0CFB300804878001D
:101F900060D02100D0E08800C1C1210090C1B30011
:101FA00080487800D1C1210010C0B300804878007B
:101FB000E1C12100F0CFB30080487800F1C12100D9
:101FC000F0CFB300804878004013200000E1880083
:101FD000000C200010E18800300A200020E1880079
:101FE0005004200030E18800704A210040E1880060
:101FF000F0E3270050E1880070FB280060E18800D2
:10200000A03D200070E18800800B210080E1880065
:10201000B00120000100200090E18800A1E18800CB
:10202000F0FF2F00B0E1880081C32100B0C1B300F0
:1020300080487800F0FF2F00F1FF2F00D0E18800EA
:10204000E1E18800E1C321000020EF008048780032
:10205000F1C3210010C0B300804878000020EF00D9
:1020600000E288000020EF0010E28800600E2200ED
:1020700020E288000020EF0030E28800809C2400ED
:1020800030078900810E22000020EF008048780090
:10209000910E220010C4B30080487800A10E2200E7
:1020A00010C5B30080487800B10E2200F0CFB30015
:1020B0008048780060D0210020DE880061BC2100CB
:1020C000A0C1B3008048780071BC21000020EF005F
:1020D0008048780081BC2100F0CFB30080487800B0
:1020E00091BC2100F0CFB30080487800C0142000DC
:1020F00050DE88008000200060DE8800800820001C
:1021000070DE88005003200080DE8800A03D2000A3
:1021100090DE8800F0E32700A0DE8800F0E32700CF
:10212000B0DE8800A03D2000C0DE8800600E2100E7
:10213000D0DE8800B001200001002000E0DE880031
:10214000F1DE8800F0FF2F0000DF880021BE2100B3
:10215000B0C1B30080487800F0FF2F00F1FF2F00DE
:1021600020DF880031DF880081BE21000020EF00E1
:102170008048780091BE21000020EF008048780060
:102180000020EF0050DF88000020EF0060DF8800B3
:10219000E00F220070DF88000020EF0080DF880061
:1021A000E0942400F0078900011022000020EF00D5
:1021B000804878001110220010C4B30080487800D5
:1021C0002110220010C5B300804878003110220091
:1021D000F0CFB3008048780000FD2100D0CE880009
:1021E000C19D210060C0B30080487800D19D2100CE
:1021F00010C0B30080487800E19D2100F0CFB3000B
:1022000080487800F19D2100F0CFB300804878002D
:102210008011200000CF8800D002200010CF88005D
:102220008002200020CF8800619E210010C0B300F2
:10223000804878000020EF0040CF8800A03D2000BB
:1022400050CF8800F0E3270060CF8800E19E210096
:10225000A0C0B30080487800F19E210050C0B300B8
:10226000804878000020EF0080CF880040062000E2
:1022700090CF8800419F21000020EF008048780027
:10228000519F21000020EF0080487800619F2100CD
:102290000020EF0080487800719F210010C0B3003B
:1022A00080487800819F21000020EF00804878005E
:1022B0000020EF00D0CF88000020EF00E0CF8800A2
:1022C0000020EF00F0CF88000020EF0000D0880051
:1022D00000FD2100C0CB8800A197210080C0B30081
:1022E00080487800B197210010C0B3008048780082
:1022F000C1972100F0CFB30080487800D19721002A
:10230000F0CFB30080487800D0172000F0CB8800D1
:10231000A001200000CC8800C004200010CC880060
:102320002001200020CC88006198210010C0B3005B
:10233000804878000020EF0040CC8800A03D2000BD
:1023400050CC8800F0FF2F0060CC8800F0E327001D
:1023500070CC88009011210080CC88006011210091
:1023600090CC8800A001200001002000A0CC8800B3
:10237000B1CC8800F0FF2F00C0CC8800A1992100CB
:10238000A0C1B30080487800F0FF2F00F1FF2F00BC
:10239000E0CC8800F1CC88000020EF0000CD880060
:1023A000219A21000020EF0080487800319A210016
:1023B00010C0B300804878000020EF0020CD8800D6
:1023C0000020EF0030CD8800800F220040CD880033
:1023D0000020EF0050CD8800A0992400C00789009C
:1023E000A10F22000020EF0080487800B10F2200EA
:1023F00010C4B30080487800C10F220010C5B3009C
:1024000080487800D10F2200F0CFB30080487800D8
:1024100000FD210060CD8800E19A2100A0C0B3003A
:1024200080487800F19A210010C0B30080487800FD
:10243000019B2100F0CFB30080487800119B210060
:10244000F0CFB300804878002011200090CD8800A4
:10245000200D2000A0CD8800B00C2000B0CD880059
:1024600050032000C0CD880000C22000D0CD8800DD
:10247000F0E32700E0CD880070752700F0CD8800DC
:10248000A03D200000CE8800400D210010CE880025
:10249000B00120000100200020CE880031CE88004D
:1024A000F0FF2F0040CE8800A19C2100B0C1B300F6
:1024B00080487800F0FF2F00F1FF2F0060CE8800E9
:1024C00071CE8800019D21000020EF008048780037
:1024D000119D210010C0B300804878000020EF005B
:1024E00090CE88000020EF00A0CE8800400D220092
:1024F000B0CE88000020EF00C0CE8800E0B22400FB
:10250000A0068900610D22000020EF0080487800BD
:10251000710D220010C4B30080487800810D2200A4
:1025200010C5B30080487800910D2200F0CFB300B1
:102530008048780000FD2100100489004108220035
:10254000B0C0B30080487800510822000020EF009E
:102550008048780061082200F0CFB30080487800FE
:1025600071082200F0CFB3008048780020112000CD
:1025700040048900200D200050048900B00C200088
:1025800060048900500320007004890000002C00C2
:1025900080048900F0E327009004890030B72E0002
:1025A000A0048900A03D2000B0048900500C210047
:1025B000C0048900B001200001002000D00489007F
:1025C000E1048900F0FF2F00F0048900010A2200D5
:1025D000B0C1B30080487800F0FF2F00F1FF2F005A
:1025E0001005890021058900610A22000020EF0002
:1025F00080487800710A22000020EF0080487800AF
:102600000020EF00400589000020EF005005890000
:10261000E00C2200600589000020EF0070058900B1
:10262000E0E4240070068900010D22000020EF0084
:1026300080487800110D220010C4B3008048780053
:10264000210D220010C5B30080487800310D220012
:10265000F0CFB3008048780000FD2100F0FD880035
:1026600001FC2100C0C0B3008048780011FC2100AB
:102670000020EF008048780021FC2100F0CFB3005B
:102680008048780031FC2100F0CFB300804878000A
:102690008002200020FE88000002200030FE88001A
:1026A0002003200040FE88000002200050FE880029
:1026B000C1FC210030C0B300804878005051210097
:1026C00070FE880000FD2100A0F2880061E5210075
:1026D000D0C0B3008048780071E521000020EF00F1
:1026E0008048780081E52100F0CFB3008048780071
:1026F00091E52100F0CFB3008048780080022000EF
:10270000D0F2880000022000E0F2880020032000C0
:10271000F0F288000002200000F3880021E621008A
:1027200030C0B300804878005051210020F3880069
:1027300000FD210030F3880081E62100E0C0B300F5
:102740008048780091E621000020EF008048780062
:10275000A1E62100F0CFB30080487800B1E6210067
:10276000F0CFB300804878008002200060F388003A
:102770000002200070F388002003200080F388000E
:102780000002200090F3880041E7210030C0B30030
:102790008048780050512100B0F3880000FD2100EE
:1027A00010F2880041E42100F0C0B30080487800B6
:1027B00051E421000020EF008048780061E421000E
:1027C000F0CFB3008048780071E42100F0CFB3006F
:1027D000804878008002200040F28800000220003B
:1027E00050F288002003200060F2880000022000E0
:1027F00070F2880001E5210030C0B3008048780005
:102800005051210090F2880000FD2100F0F0880076
:1028100001E2210000C1B3008048780011E22100EC
:102820000020EF008048780021E22100F0CFB300C3
:102830008048780031E22100F0CFB3008048780072
:102840008002200020F188000002200030F1880082
:102850002003200040F188000002200050F1880091
:10286000C1E2210030C0B3008048780050512100FF
:1028700070F1880000FD210080F1880021E3210033
:1028800010C1B3008048780031E321000020EF0040
:102890008048780041E32100F0CFB3008048780001
:1028A00051E32100F0CFB30080487800800220007F
:1028B000B0F1880000022000C0F188002003200051
:1028C000D0F1880000022000E0F18800E1E321005F
:1028D00030C0B300804878005051210000F28800D9
:1028E00000FD210070F5880001EB210020C1B3003C
:1028F0008048780011EB21000020EF00804878002C
:1029000021EB2100F0CFB3008048780031EB2100AB
:10291000F0CFB3008048780080022000A0F5880046
:1029200000022000B0F5880020032000C0F58800D8
:1029300000022000D0F58800C1EB210030C0B300B8
:102940008048780050512100F0F5880000FD2100FA
:1029500000F6880021EC210030C1B30080487800E7
:1029600031EC21000020EF008048780041EC21008C
:10297000F0CFB3008048780051EC2100F0CFB300D5
:10298000804878008002200030F688000002200095
:1029900040F688002003200050F688000002200046
:1029A00060F68800E1EC210030C0B3008048780078
:1029B0005051210080F6880000FD2100E0F48800DD
:1029C000E1E9210040C1B30080487800F1E921002D
:1029D0000020EF008048780001EA2100F0CFB3002A
:1029E0008048780011EA2100F0CFB30080487800D9
:1029F0008002200010F588000002200020F58800E9
:102A00002003200030F588000002200040F58800F7
:102A1000A1EA210030C0B300804878005051210065
:102A200060F5880000FD2100C0F38800A1E72100C7
:102A300050C1B30080487800B1E721000020EF00CA
:102A400080487800C1E72100F0CFB30080487800CB
:102A5000D1E72100F0CFB300804878008002200049
:102A6000F0F388000002200000F48800200320001A
:102A700010F488000002200020F4880061E82100A2
:102A800030C0B300804878005051210040F48800E5
:102A900000FD210050F48800C1E8210060C1B300AE
:102AA00080487800D1E821000020EF0080487800BD
:102AB000E1E82100F0CFB30080487800F1E8210080
:102AC000F0CFB300804878008002200080F48800B6
:102AD0000002200090F4880020032000A0F4880069
:102AE00000022000B0F4880081E9210030C0B3006A
:102AF0008048780050512100D0F4880000FD21006A
:102B0000D0D68800C1AD210070C1B30080487800E4
:102B1000D1AD21000020EF0080487800E1AD210018
:102B2000F0CFB30080487800F1AD2100F0CFB300C2
:102B3000804878008002200000D788000002200032
:102B400010D788002003200020D788000002200032
:102B500030D7880081AE210030C0B30080487800B3
:102B60005051210050D7880000FD210070C488001A
:102B70000189210080C1B3008048780011892100BB
:102B80000020EF008048780021892100F0CFB300B9
:102B90008048780031892100F0CFB3008048780068
:102BA00080022000A0C4880000022000B0C4880079
:102BB00020032000C0C4880000022000D0C4880088
:102BC000C189210030C0B3008048780050512100F5
:102BD000F0C4880000FD210000C58800218A210082
:102BE00090C1B30080487800318A21000020EF00B6
:102BF00080487800418A2100F0CFB30080487800F7
:102C0000518A2100F0CFB300804878008002200074
:102C100030C588000002200040C588002003200045
:102C200050C588000002200060C58800E18A2100AC
:102C300030C0B300804878005051210080C5880022
:102C400000FD2100E0C38800E1872100A0C1B3009E
:102C500080487800F18721000020EF00804878004C
:102C600001882100F0CFB30080487800118821004E
:102C7000F0CFB300804878008002200010C48800A4
:102C80000002200020C488002003200030C48800F7
:102C90000002200040C48800A188210030C0B30099
:102CA000804878005051210060C4880000FD210058
:102CB000C0C28800A1852100B0C1B300804878005F
:102CC000B18521000020EF0080487800C1852100F7
:102CD000F0CFB30080487800D1852100F0CFB30059
:102CE0008048780080022000F0C2880000022000A6
:102CF00000C388002003200010C3880000022000C9
:102D000020C388006186210030C0B300804878006D
:102D10005051210040C3880000FD210050C38800AD
:102D2000C1862100C0C1B30080487800D18621004F
:102D30000020EF0080487800E1862100F0CFB3004A
:102D400080487800F1862100F0CFB30080487800F9
:102D50008002200080C388000002200090C3880009
:102D600020032000A0C3880000022000B0C3880018
:102D70008187210030C0B300804878005051210085
:102D8000D0C3880000FD210040C78800A18E21002B
:102D9000D0C1B30080487800B18E21000020EF0040
:102DA00080487800C18E2100F0CFB30080487800C1
:102DB000D18E2100F0CFB30080487800800220003F
:102DC00070C788000002200080C788002003200010
:102DD00090C7880000022000A0C78800618F2100F2
:102DE00030C0B3008048780050512100C0C788002F
:102DF00000FD2100D0C78800C18F2100E0C1B300D1
:102E000080487800D18F21000020EF0080487800B2
:102E1000E18F2100F0CFB30080487800F18F2100CE
:102E2000F0CFB300804878008002200000C88800FE
:102E30000002200010C888002003200020C888005D
:102E40000002200030C888008190210030C0B3000B
:102E5000804878005051210050C8880000FD2100B2
:102E6000B0C68800818D2100F0C1B3008048780091
:102E7000918D21000020EF0080487800A18D210075
:102E8000F0CFB30080487800B18D2100F0CFB300BF
:102E90008048780080022000E0C688000002200000
:102EA000F0C688002003200000C788000002200030
:102EB00010C78800418E210030C0B30080487800E0
:102EC0005051210030C7880000FD210090C58800C6
:102ED000418B210000C2B30080487800518B210053
:102EE0000020EF0080487800618B2100F0CFB30014
:102EF00080487800718B2100F0CFB30080487800C3
:102F000080022000C0C5880000022000D0C58800D3
:102F100020032000E0C5880000022000F0C58800E2
:102F2000018C210030C0B30080487800505121004E
:102F300010C6880000FD210020C68800618C210099
:102F400010C2B30080487800718C21000020EF008F
:102F500080487800818C2100F0CFB3008048780051
:102F6000918C2100F0CFB3008048780080022000CF
:102F700050C688000002200060C6880020032000A0
:102F800070C688000002200080C68800218D2100C4
:102F900030C0B3008048780050512100A0C688009E
:102FA00000FD2100D0BE8800C17D210020C2B300F9
:102FB00080487800D17D21000020EF008048780013
:102FC000E17D2100F0CFB30080487800F17D210041
:102FD000F0CFB300804878008002200000BF880056
:102FE0000002200010BF88002003200020BF8800BE
:102FF0000002200030BF8800817E210030C0B30075
:10300000804878005051210050BF880000FD210009
:1030100060BF8800E17E210030C2B30080487800A4
:10302000F17E21000020EF0080487800017F210020
:10303000F0CFB30080487800117F2100F0CFB300BB
:10304000804878008002200090BF880000022000A5
:10305000A0BF880020032000B0BF8800000220002D
:10306000C0BF8800A17F210030C0B3008048780035
:1030700050512100E0BF880000FD210040BE8800C3
:10308000A17C210040C2B30080487800B17C2100BF
:103090000020EF0080487800C17C2100F0CFB30011
:1030A00080487800D17C2100F0CFB30080487800C0
:1030B0008002200070BE88000002200080BE8800D0
:1030C0002003200090BE880000022000A0BE8800DF
:1030D000617D210030C0B30080487800505121004C
:1030E000C0BE880000FD210020BD8800617A21005B
:1030F00050C2B30080487800717A21000020EF00B0
:1031000080487800817A2100F0CFB30080487800B1
:10311000917A2100F0CFB30080487800800220002F
:1031200050BD88000002200060BD88002003200000
:1031300070BD88000002200080BD8800217B210036
:1031400030C0B3008048780050512100A0BD8800F5
:1031500000FD2100B0BD8800817B210060C2B3006A
:1031600080487800917B21000020EF0080487800A3
:10317000A17B2100F0CFB30080487800B17B210013
:10318000F0CFB3008048780080022000E0BD8800C6
:1031900000022000F0BD88002003200000BE88004F
:1031A0000002200010BE8800417C210030C0B30026
:1031B000804878005051210030BE880000FD210079
:1031C000A0C188006183210070C2B30080487800EC
:1031D000718321000020EF00804878008183210066
:1031E000F0CFB3008048780091832100F0CFB30086
:1031F0008048780080022000D0C1880000022000B2
:10320000E0C1880020032000F0C1880000022000F7
:1032100000C288002184210030C0B30080487800BB
:103220005051210020C2880000FD210030C28800DA
:103230008184210080C2B3008048780091842100FD
:103240000020EF0080487800A1842100F0CFB30077
:1032500080487800B1842100F0CFB3008048780026
:103260008002200060C288000002200070C2880036
:103270002003200080C288000002200090C2880045
:103280004185210030C0B3008048780050512100B2
:10329000B0C2880000FD210010C1880041822100D9
:1032A00090C2B30080487800518221000020EF00D6
:1032B0008048780061822100F0CFB3008048780018
:1032C00071822100F0CFB300804878008002200096
:1032D00040C188000002200050C188002003200067
:1032E00060C188000002200070C1880001832100B5
:1032F00030C0B300804878005051210090C1880050
:1033000000FD2100F0BF880001802100A0C2B300B1
:1033100080487800118021000020EF00804878006C
:1033200021802100F0CFB300804878003180210057
:10333000F0CFB300804878008002200020C08800D1
:103340000002200030C088002003200040C0880018
:103350000002200050C08800C180210030C0B300AE
:10336000804878005051210070C0880000FD210085
:1033700080C0880021812100B0C2B300804878005D
:10338000318121000020EF00804878004181210038
:10339000F0CFB3008048780051812100F0CFB30016
:1033A0008048780080022000B0C088000002200021
:1033B000C0C0880020032000D0C088000002200088
:1033C000E0C08800E181210030C0B300804878006F
:1033D0005051210000C1880000FD210060C8880014
:1033E000E1902100C0C2B30080487800F190210034
:1033F0000020EF008048780001912100F0CFB30059
:103400008048780011912100F0CFB3008048780007
:103410008002200090C8880000022000A0C8880018
:1034200020032000B0C8880000022000C0C8880027
:10343000A191210030C0B300804878005051210094
:10344000E0C8880000FD2100E0D28800E1A521004D
:10345000D0C2B30080487800F1A521000020EF0021
:103460008048780001A62100F0CFB30080487800A2
:1034700011A62100F0CFB300804878008002200020
:1034800010D388000002200020D3880020032000F1
:1034900030D388000002200040D38800A1A621007C
:1034A00030C0B300804878005051210060D38800BC
:1034B00000FD210070D3880001A72100E0C2B30005
:1034C0008048780011A721000020EF008048780094
:1034D00021A72100F0CFB3008048780031A7210058
:1034E000F0CFB3008048780080022000A0D388008D
:1034F00000022000B0D3880020032000C0D3880041
:1035000000022000D0D38800C1A7210030C0B30042
:103510008048780050512100F0D3880000FD210040
:1035200050D28800C1A42100F0C2B30080487800C6
:10353000D1A421000020EF0080487800E1A4210000
:10354000F0CFB30080487800F1A42100F0CFB300A1
:10355000804878008002200080D28800000220008D
:1035600090D2880020032000A0D288000002200012
:10357000B0D2880081A5210030C0B3008048780017
:1035800050512100D0D2880000FD210030D18800A8
:1035900081A2210000C3B3008048780091A22100DD
:1035A0000020EF0080487800A1A22100F0CFB300F6
:1035B00080487800B1A22100F0CFB30080487800A5
:1035C0008002200060D188000002200070D18800B5
:1035D0002003200080D188000002200090D18800C4
:1035E00041A3210030C0B300804878005051210031
:1035F000B0D1880000FD2100C0D18800A1A3210026
:1036000010C3B30080487800B1A321000020EF0070
:1036100080487800C1A32100F0CFB3008048780033
:10362000D1A32100F0CFB3008048780080022000B1
:10363000F0D188000002200000D288002003200082
:1036400010D288000002200020D2880061A421004E
:1036500030C0B300804878005051210040D288002B
:1036600000FD2100B0D5880081AB210020C3B3004C
:103670008048780091AB21000020EF00804878005E
:10368000A1AB2100F0CFB30080487800B1AB21009E
:10369000F0CFB3008048780080022000E0D5880099
:1036A00000022000F0D588002003200000D688000A
:1036B0000002200010D6880041AC210030C0B300C9
:1036C000804878005051210030D6880000FD21004C
:1036D00040D68800A1AC210030C3B30080487800F8
:1036E000B1AC21000020EF0080487800C1AC21007F
:1036F000F0CFB30080487800D1AC2100F0CFB30008
:10370000804878008002200070D6880000022000E7
:1037100080D688002003200090D688000002200078
:10372000A0D6880061AD210030C0B3008048780089
:1037300050512100C0D6880000FD210020D588000E
:1037400061AA210040C3B3008048780071AA21001B
:103750000020EF008048780081AA2100F0CFB3005C
:103760008048780091AA2100F0CFB300804878000B
:103770008002200050D588000002200060D588001B
:103780002003200070D588000002200080D588002A
:1037900021AB210030C0B300804878005051210097
:1037A000A0D5880000FD210000D4880021A82100B8
:1037B00050C3B3008048780031A821000020EF00FA
:1037C0008048780041A82100F0CFB30080487800FD
:1037D00051A82100F0CFB30080487800800220007B
:1037E00030D488000002200040D48800200320004C
:1037F00050D488000002200060D48800E1A8210095
:1038000030C0B300804878005051210080D4880037
:1038100000FD210090D4880041A9210060C3B300BD
:103820008048780051A921000020EF0080487800EE
:1038300061A92100F0CFB3008048780071A9210070
:10384000F0CFB3008048780080022000C0D4880008
:1038500000022000D0D4880020032000E0D488009B
:1038600000022000F0D4880001AA210030C0B3007B
:10387000804878005051210010D5880000FD2100BB
:10388000A0CA88006195210070C3B3008048780009
:10389000719521000020EF0080487800819521007B
:1038A000F0CFB3008048780091952100F0CFB300AD
:1038B0008048780080022000D0CA880000022000E2
:1038C000E0CA880020032000F0CA8800000220001F
:1038D00000CB88002196210030C0B30080487800DA
:1038E0005051210020CB880000FD210030CB880002
:1038F0008196210080C3B300804878009196210012
:103900000020EF0080487800A1962100F0CFB3009E
:1039100080487800B1962100F0CFB300804878004D
:103920008002200060CB88000002200070CB88005D
:103930002003200080CB88000002200090CB88006C
:103940004197210030C0B3008048780050512100D9
:10395000B0CB880000FD210010CA880041942100EE
:1039600090C3B30080487800519421000020EF00FC
:103970008048780061942100F0CFB300804878003F
:1039800071942100F0CFB3008048780080022000BD
:1039900040CA88000002200050CA8800200320008E
:1039A00060CA88000002200070CA880001952100CA
:1039B00030C0B300804878005051210090CA880080
:1039C00000FD2100F0C8880001922100A0C3B300CF
:1039D00080487800119221000020EF008048780094
:1039E00021922100F0CFB30080487800319221006D
:1039F000F0CFB300804878008002200020C9880002
:103A00000002200030C988002003200040C988003F
:103A10000002200050C98800C192210030C0B300CC
:103A2000804878005051210070C9880000FD2100B5
:103A300080C9880021932100B0C3B300804878007A
:103A4000319321000020EF0080487800419321004D
:103A5000F0CFB3008048780051932100F0CFB3003D
:103A60008048780080022000B0C988000002200051
:103A7000C0C9880020032000D0C9880000022000AF
:103A8000E0C98800E193210030C0B300804878008D
:103A90005051210000CA880000FD210010D088008C
:103AA00041A02100C0C3B3008048780051A021008C
:103AB0000020EF008048780061A02100F0CFB30023
:103AC0008048780071A02100F0CFB30080487800D2
:103AD0008002200040D088000002200050D08800E2
:103AE0002003200060D088000002200070D08800F1
:103AF00001A1210030C0B30080487800505121005E
:103B000090D0880000FD2100A0D0880061A1210094
:103B1000D0C3B3008048780071A121000020EF00DD
:103B20008048780081A12100F0CFB3008048780060
:103B300091A12100F0CFB3008048780080022000DE
:103B4000D0D0880000022000E0D0880020032000B0
:103B5000F0D088000002200000D1880021A22100BE
:103B600030C0B300804878005051210020D1880037
:103B700000FD2100B023890081472200E0C3B3008B
:103B8000804878009147220010C0B3008048780038
:103B9000A1472200F0CFB30080487800B14722004F
:103BA000F0CFB3008048780020172000E023890080
:103BB00080032000F02389003005200000248900C4
:103BC000F000200010248900C01121002024890069
:103BD000614822000020EF0080487800A00120000A
:103BE0000100200040248900512489008014200015
:103BF00060248900E1482200A0C1B3008048780019
:103C0000F0FF2F00F1FF2F0080248900912489000C
:103C10004149220010C0B300804878000020EF0026
:103C2000B02489000020EF00C02489000020EF00AC
:103C3000D02489000020EF00E024890000FD21004D
:103C4000401B8900A1362200F0C3B30080487800F1
:103C5000B136220010C0B30080487800C13622007F
:103C6000F0CFB30080487800D1362200F0CFB30007
:103C70008048780020112000701B89007008200007
:103C8000801B8900800C2000901B8900000320000D
:103C9000A01B8900A03D2000B01B8900F0E3270095
:103CA000C01B8900F0E32700D01B8900A03D200045
:103CB000E01B8900800A2100F01B8900B001200070
:103CC00001002000001C8900111C8900F0FF2F005A
:103CD000201C890061382200B0C1B3008048780000
:103CE000F0FF2F00F1FF2F00401C8900511C8900BC
:103CF000C13822000020EF0080487800D13822002F
:103D000010C0B300804878000020EF00701C8900CC
:103D10000020EF00801C8900000E2200901C89000A
:103D20000020EF00A01C890020A5240000078900C6
:103D3000210E22000020EF0080487800310E220082
:103D400010C4B30080487800410E220010C5B300B3
:103D500080487800510E2200F0CFB30080487800F0
:103D600000FD2100F0248900014A220000C4B300B4
:103D700080487800114A220010C0B30080487800C3
:103D8000214A2200F0CFB30080487800314A220057
:103D9000F0CFB30080487800F0172000202589007C
:103DA000E004200030258900B00120004025890072
:103DB000F000200050258900E009210060258900DD
:103DC000E14A22000020EF0080487800A001200096
:103DD00001002000802589009125890080142000A1
:103DE000A0258900614B2200A0C1B3008048780063
:103DF000F0FF2F00F1FF2F00C0258900D125890099
:103E0000C14B22000020EF00804878000020EF0026
:103E1000F02589000020EF00002689000020EF0037
:103E2000102689000020EF002026890000FD2100D7
:103E3000B01C89008139220020C4B300804878007A
:103E40009139220010C0B30080487800A1392200C7
:103E5000F0CFB30080487800B1392200F0CFB30032
:103E600080487800A0002000E01C8900500A200053
:103E7000F01C890040062000001D8900C0022000BF
:103E8000101D8900A03D2000201D8900F0E32700BF
:103E9000301D8900F0E32700401D8900A03D20006F
:103EA000501D8900400E2100601D8900B0012000D6
:103EB00001002000701D8900811D8900F0FF2F0086
:103EC000901D8900413B2200B0C1B30080487800BA
:103ED000F0FF2F00F1FF2F00B01D8900C11D8900E8
:103EE000A13B22000020EF0080487800B13B220077
:103EF00010C0B300804878000020EF00E01D89006A
:103F00000020EF00F01D8900A00D2200001E890096
:103F10000020EF00101E8900A0A82400D006890010
:103F2000C10D22000020EF0080487800D10D220052
:103F300010C4B30080487800E10D220010C5B30022
:103F400080487800F10D2200F0CFB300804878005F
:103F500000FD2100D0198900C133220030C4B30014
:103F600080487800D133220010C0B3008048780028
:103F7000E1332200F0CFB30080487800F133220013
:103F8000F0CFB3008048780070082000001A890044
:103F9000500A2000101A890040062000201A8900CB
:103FA000C0022000301A8900A03D2000401A89007C
:103FB000F0E32700501A8900F0E32700601A890017
:103FC000A03D2000701A8900703B2100801A8900F2
:103FD000B001200001002000901A8900A11A890078
:103FE000F0FF2F00B01A890081352200B0C1B30064
:103FF00080487800F0FF2F00F1FF2F00D01A8900D1
:10400000E11A8900E13522000020EF0080487800A5
:10401000F135220010C0B300804878000020EF0086
:10402000001B89000020EF00101B8900604921005F
:10403000201B89000020EF00301B8900206B24002A
:10404000B0A48800814921000020EF00804878005A
:104050009149210010C4B30080487800A149210093
:1040600010C5B30080487800B1492100F0CFB300FB
:104070008048780000FD2100F0168900012E220002
:1040800040C4B30080487800112E220010C0B30055
:1040900080487800212E2200F0CFB30080487800BD
:1040A000312E2200F0CFB30080487800A00020001D
:1040B00020178900C00D200030178900400620001D
:1040C00040178900C002200050178900A03D200041
:1040D00060178900F0E3270070178900F0E32700DC
:1040E00080178900A03D200090178900503B2100D7
:1040F000A0178900B001200001002000B01789003E
:10410000C1178900F0FF2F00D0178900C12F2200AE
:10411000B0C1B30080487800F0FF2F00F1FF2F00FE
:10412000F017890001188900213022000020EF00DB
:10413000804878003130220010C0B30080487800F9
:104140000020EF00201889000020EF0030188900BF
:1041500000492100401889000020EF005018890014
:10416000C06B240080A48800214921000020EF00BA
:10417000804878003149210010C4B300804878009D
:104180004149210010C5B300804878005149210001
:10419000F0CFB3008048780000FD2100601889004E
:1041A000E130220050C4B30080487800F130220092
:1041B00010C0B3008048780001312200F0CFB30076
:1041C0008048780011312200F0CFB3008048780099
:1041D0007008200090188900C00D2000A0188900E8
:1041E00040062000B0188900C0022000C0188900D5
:1041F000A03D2000D0188900F0E32700E0188900D6
:10420000F0E32700F0188900A03D20000019890084
:10421000303B210010198900B0012000010020006E
:104220002019890031198900F0FF2F0040198900F9
:10423000A1322200B0C1B30080487800F0FF2F0007
:10424000F1FF2F00601989007119890001332200E4
:104250000020EF00804878001133220010C0B30026
:10426000804878000020EF00901989000020EF00BE
:10427000A0198900C0492100B01989000020EF0071
:10428000C0198900A0722400E0A48800E14921003F
:104290000020EF0080487800F149210010C4B300ED
:1042A00080487800014A210010C5B300804878009A
:1042B000114A2100F0CFB3008048780000FD2100B2
:1042C000702289000145220060C4B3008048780054
:1042D0001145220010C0B30080487800214522001B
:1042E000F0CFB3008048780031452200F0CFB30012
:1042F00080487800A0002000A022890070082000DB
:10430000B022890010062000C02289001001200080
:10431000D0228900303D2100E0228900E1452200C1
:104320000020EF0080487800B0012000010020004C
:104330000023890011238900801420002023890094
:1043400061462200B0C1B30080487800F0FF2F0022
:10435000F1FF2F004023890051238900C14622002C
:1043600010C0B300804878000020EF00702389005F
:104370000020EF00802389000020EF0090238900B7
:104380000020EF00A023890000FD2100D0FC880060
:10439000C1F9210070C4B30080487800D1F9210030
:1043A0000020EF0080487800E1F9210040CCB30004
:1043B00080487800F1F92100F0CFB3008048780000
:1043C0002000200000FD88004000200010FD880033
:1043D000C01D200020FD8800A010200030FD8800B6
:1043E00081FA210010C0B300804878000020EF005F
:1043F00050FD8800F0FF2F0060FD8800F0FF2F00C7
:1044000070FD8800F0FF2F0080FD880080612C0087
:1044100090FD880041FB21000020EF0080487800DB
:1044200051FB21000020EF00804878000020EF00C1
:10443000B0FD88000020EF00C0FD88000020EF00E4
:10444000D0FD88000020EF00E0FD880000FD210085
:10445000201E8900613C220080C4B300804878009F
:10446000713C22000020EF0080487800813C22004F
:10447000F0CFB30080487800913C2200F0CFB30029
:1044800080487800A0062000501E8900B00420005B
:10449000601E890090102000701E8900900120008D
:1044A000801E8900C0402100901E8900413D2200ED
:1044B0000020EF0080487800D0012000010020009B
:1044C000B01E8900C11E8900F0472000D01E89005F
:1044D000C13D2200D0C1B30080487800F0FF2F001A
:1044E000F1FF2F00F01E8900011F8900213E2200EC
:1044F0000020EF00804878000020EF00201F890096
:104500000020EF00301F89000020EF00401F8900CD
:104510000020EF00501F8900C03E2200D009890012
:10452000C11322000020EF0080487800D113220040
