:10000000CAB804000000000000000000000000006A
:1000100000000000000000000000000000000000E0
:1000200000000000000000000000000000000000D0
:1000300000000000000000000000000000000000C0
:1000400000000000000000000000000000000000B0
:100050000000000024B800000000000000000000C4
:100060000000000000000000000000000000000090
:100070000000000000000000000000000000000080
:100080000000000000000000000000000000000070
:100090000000000000000000000000000000000060
:1000A000000000000000000000000000E4B80000B4
:1000B0000000000000000000000000000000000040
:1000C0000000000000000000000000000000000030
:1000D0000000000000000000000000000000000020
:1000E0000000000000000000000000000000000010
:020000040001F9
:10719400CF802200F0FF240020A0B7002020200090
:1071A40032A0B700400020004420B70030B90200EC
:1071B4000000000041FF070009FF0700FEFF370041
:0471C400FFFF370092
:106EC0005400FA008A1F78008B1F78008C1F78000E
:106ED0008D1F7800FAFD07002D0020008C01200096
:106EE0001620EF000A02200000102000801F78000A
:106EF0000020EF00801F78000020EF00801F780046
:106F00000020EF00801F780012FC07008F00B10006
:106F1000C2FC07004AC0B30096FE07002AC2B300B5
:106F200090FE0700E0004700A04228002900090069
:106F3000B0187800600047000005780041FE0700A7
:106F4000E0004700E06B280001000900B01878005D
:106F50006000470000057800EFFC0700E0004700F4
:106F6000506C280001000900B0587800600047000C
:106F700000057800C9E30700E000470060662800CC
:106F800006000900B018780060004700000578008E
:106F900011FB0700E0004700906B28000300090088
:106FA000B0587800600047000005780075FE0700C3
:106FB000E0004700206C280002000900B05878006B
:106FC000600047000005780093FE0700E0004700DE
:106FD000C06228000B000900B0187800600047006C
:106FE000000578005DE30700E000470040612800ED
:106FF0000B000900B0187800600047000005780019
:1070000072E30700F2E30700CACE2100E7FA0700A7
:10701000CF0678004F067800CF0578004F0578003E
:087020000080FA0000000600E8
:1066C0004004200046A7B7004427EF000E2EEF003D
:0866D0001E2EEF000000060081
:105F54000000FA00CEB897003EBA97002EB9970019
:105F64009EB997004022EF004222EF004015240022
:105F740000B38800F0FF2F0080A688000B00750096
:105F84000C0070000D00700001007000040070002F
:105F940082007000202420000388700040C2A90001
:0C5FA40041E2A8000080FA0000000600A6
:10621C000000FA008A1F78008B1F78008C1F780012
:10622C00312521000020EF0080487800F101210089
:10623C000020EF00804878000020EF0030BD88007F
:10624C00C10621000020EF0080487800D106210013
:10625C00F0CFB300804878004C0020001620EF00EF
:10626C002A662100F0DF0700EC0020001620EF006A
:10627C002A652100ECDF07008C1720001620EF00A8
:10628C00AA4D2100E8DF07000C1420001620EF00B7
:10629C006A662100E4DF070082DF0700E166210067
:1062AC00F0CFB30080487800C1672100F0CFB30075
:1062BC008048780000F42100C0B3880010CEA900FB
:1062CC0014CEA900102EA900142EA80014CEA900DB
:1062DC0000E3070014CEA800FEE207001420EF0034
:1062EC00DEDF0700E1DF07006004E100020032009E
:1062FC00F0CFB300000037004F067800CF057800D0
:0C630C004F0578000080FA000000060039
:020000040000FA
:10E234000000FA000A0178008C00780061005600A2
:10E24400000678000200E200030032000B49780067
:10E254000420EC00F8FF37000A0078000080FA0080
:04E2640000000600B0
:10E0B0000000FA008A1F78008B1F78008C1F780000
:10E0C000E1792100F0CFB30080487800F0FF2F0005
:10E0D000F10F2000F0B3880001B48800216821000E
:10E0E000F0CFB3008048780031682100F0CFB30052
:10E0F000804878000020EF000220EF0020B4880064
:10E1000031B4880081682100F0CFB30080487800E6
:10E11000916821000020EF0080487800A16821006C
:10E120000020EF00804878000001200060B48800E3
:10E130000001200070B48800816921000020EF00F8
:10E14000804878000020EF0080B488000020EF00B5
:10E1500090B4880000BD8000A0B4880010BD80008D
:10E16000B0B48800916921000020EF008048780059
:10E170000C102000FBCFB300EA6921002D0007003E
:10E180004C0020001620EF00AA692100290007009A
:10E190004F067800CF0578004F0578000080FA0020
:04E1A0000000060075
:10EEE00068012000C7CC25000E20ED00FEFF3A008F
:10EEF0001020ED00FCFF3A000000000000000000C0
:04EF00000000060007
:10E268000000FA000CEA07000080FA00000006002F
:00E27800A6
:108AA0000000FA008A1F7800142EA9001440E2008A
:108AB00007003A000A85FB0000B3800000000100B7
:108AC0001420EF0000B38000000001000600370012
:108AD000010420000A80FB0000807000000578007F
:108AE00000B38000000001001420EF0000B38000FC
:108AF00000000100142EA800F91807004F057800A7
:088B00000080FA0000000600ED
:1082A8000000FA0040C2A9004022AE0001003700D9
:1082B800FDFF37004A1288004002AF000100370076
:1082C800FDFF37004882BF000080FA00000006006A
:0082D800A6
:108278000000FA0060C2A9006022AE0001003700C9
:10828800FDFF37004A1388006002AF000100370085
:10829800FDFF37006882BF000080FA00000006007A
:0082A800D6
:10E278000000FA008A1F78008B1F78008C1F780036
:10E288001CC0B300CA4122000B012000E4EC0700C7
:10E298006004E10002003200F0CFB3001D00370037
:10E2A8001820EF004A4E22000B0120007EEC0700E8
:10E2B8006004E10002003200F0CFB300150037001F
:10E2C8001820EF008A4E22000B01200076EC070090
:10E2D8006004E10002003200F0CFB3000D00370007
:10E2E8001820EF00CA4122000B012000CCEC0700E7
:10E2F8006004E10002003200F0CFB30005003700EF
:10E308000000280001012000808288009182880096
:10E318000020EF004F067800CF0578004F05780001
:08E328000080FA00000006006D
:109628000000FA008A1F78008B1F78008C1F7800D2
:10963800D1FA07004F0678006004E100020032000A
:10964800F0CFB300040037000C4578003DFA07005E
:10965800C2FA07000020EF00CF0578004F05780018
:089668000080FA00000006007A
:108180000000FA008A1F78008B1F78008C1F78008F
:1081900060662100104078006004E1000E003200AB
:1081A00060662100104078006204E10006003A0099
:1081B000806621003050E10020D8E10002003A0042
:1081C0000020EF0008003700CACEB3007CFA070099
:1081D000F0CFB30004003700142EA9001CC0B30078
:1081E0004BFA07000020EF004F067800CF0578001B
:0C81F0004F0578000080FA000000060037
:106BC0000000FA00302521000A4878000080FA0011
:046BD00000000600BB
:106B10000400FA000A0798001B0798006164E1006E
:106B20000E003A006166210020C0B3008048780062
:106B30006000470000A0EC009080FB0000082000EF
:106B4000008070008A9FBE000005780000B38000BE
:106B5000000001004F05BE000A00370061662100F9
:106B600010C0B300804878006000470000A0EC002F
:106B70008A9FBE001085FB0000B38000000001006A
:106B80004F05BE00600047000020EC008A9FBE0059
:106B90001085FB0000B38000000001000E4590004E
:106BA0000A85FB0000B38000000001004F05BE0015
:106BB0004AB388005BB388000080FA00000006003A
:006BC000D5
:107F4C000000FA008A1F780060662100104078005B
:107F5C006204E10004003200BACEB30015FB070046
:107F6C00F0CFB300190037000A85FB0000B3800086
:107F7C000000010040B3800051B38000610040005C
:107F8C00E080480040B3880051B38800407A21005B
:107F9C00104078006204E1000B003A00F4FF20006E
:107FAC00050020008066210030016200A081620083
:107FBC0000002800010120000200400083804800DE
:107FCC0040B3880051B388000020EF004F057800C3
:087FDC000080FA00000006001D
:108164000000FA00142EA800616621000020EF0030
:0C817400804878000080FA00000006003F
:1094B0000000FA008A1F78008B1F78008C1F78004C
:1094C0002FFB07004F0678006004E1000200320025
:1094D000F0CFB300040037000C05780098F80700BF
:1094E00020FB07000020EF00CF0578004F05780033
:0894F0000080FA0000000600F4
:107740000000FA008A1F780060662100104078006F
:107750006204E10004003200BACEB30018FD070055
:10776000F0CFB300200037008A1F78000A85FB00A5
:1077700000B38000000001004F05780040012000A8
:107780000020EC001085FB0000B380000000010029
:1077900040B3800051B3800062004000E0804800A8
:1077A00040B3880051B38800407A2100104078002F
:1077B0006204E1000B003A00F4FF20000500200005
:1077C0008066210030016200A08162000000280074
:1077D00001012000020040008380480040B388007F
:1077E00051B388000020EF004F0578000080FA00B8
:0477F000000006008F
:020000040001F9
:106974000000FA0049C807000080FA000000060081
:0069840013
:106964000000FA004DC807000080FA00000006008D
:0069740023
:106844000000FA008A1F78008B1F78008C1F7800E4
:106854001400E20004003A00CAC9B300D7C007001C
:10686400F0CFB300390037008A1F78000A06780099
:10687400CA4022000B01200000012000CF80DE006E
:10688400809FBE0085D607004F00B1004F057800F9
:106894006004E10002003200F0CFB3002B003700A7
:1068A400700045008A1F7800000678008A422200A2
:1068B4000B01200080022000CF80DE00809FBE00FC
:1068C40076D607004F00B1004F0578006004E10060
:1068D40002003200F0CFB3001C0037008003200018
:1068E400000045008A1F7800000678004A4522000F
:1068F4000B012000C0012000CF80DE00809FBE007D
:1069040066D607004F00B1004F0578006004E1002F
:1069140002003200F0CFB3000C003700F80045004D
:106924001100780000BD88001100780080B1880053
:10693400C0022000800045001100780010BD8800CE
:106944001100780090B188000020EF004F06780015
:10695400CF0578004F0578000080FA00000006009B
:0069640033
:020000040000FA
:10C2A0000000FA008A1F78008B1F78008C1F78002E
:10C2B0003EB89700CEB8970030BF9F0041BF9F00A7
:10C2C0008C1F7800AEEF07004F0678006004E10095
:10C2D00002003200F0CFB300060037000C057800F2
:10C2E000BEBD97004EBE9700EFFA07009DEF070016
:10C2F0000020EF004F067800CF0578004F0578004A
:08C300000080FA0000000600B5
:10AEA8000000FA008A1F78006066210010407800D0
:10AEB8006204E10004003200BACEB3003EEF07009E
:10AEC800F0CFB300290037008266210032804500A8
:10AED800A2004E0040B3880051B38800407A210098
:10AEE800104078006204E1000B003A00F4FF2000F3
:10AEF800050020008066210030016200A081620008
:10AF08000000280001012000020040008380480062
:10AF180040B3880051B388000B0178008C01780099
:10AF280061805500E0005E00800578000106780029
:10AF3800028071000C0032008B1F78008C1F780093
:10AF48008A1F78001A85FB0000B38000000001000A
:10AF58004F0578004F067800CF057800610045005E
:10AF680000057800ECFF37000020EF004F0578005F
:08AF78000080FA000000060051
:020000040001F9
:106318000000FA008A1F78008B1F78001400E20042
:1063280004003A00CAC9B30023C20700F0CFB30083
:106338000A003700E20045001A007800914578000D
:10634800000578008CDA07006004E10002003200E2
:10635800F0CFB300010037000020EF00CF05780030
:0C6368004F0578000080FA0000000600DD
:020000040000FA
:10CD80000000FA008A1F78008B1F780008F7070060
:10CD9000CF0578006004E10002003200F0CFB3005C
:10CDA000070037000B45780025F707006004E10015
:10CDB00002003200F0CFB300010037000020EF0086
:0CCDC0004F0578000080FA00000006001B
:10A9B0000000FA008A1F78008B1F78008C1F780037
:10A9C0000A0678000A4C22000B012000B8FA0700A2
:10A9D0006004E10002003200F0CFB3000100370054
:10A9E0000020EF004F067800CF0578004F05780073
:08A9F0000080FA0000000600DF
:10AA40000000FA008A1F78008B1F78008C1F7800A6
:10AA50000A86FB004A4C22000B01200094FA0700F2
:10AA60006004E10002003200F0CFB30001003700C3
:10AA70000020EF004F067800CF0578004F057800E2
:08AA80000080FA00000006004E
:10FE9C000000FA008A1F78008B1F78001400E20023
:10FEAC0004003A00CAC9B30042DB0700F0CFB3002C
:10FEBC0005003700E10045001A40780091457800B4
:10FECC0000457800C7F20700CF0578004F05780091
:08FEDC000080FA00000006009E
:10C9F0000000FA008A1F78000B457800B4FB07009E
:10CA00004F0578006004E10002003200F0CFB3006F
:10CA1000060037009CFB07006004E10002003200C2
:10CA2000F0CFB300010037000020EF000080FA00D3
:04CA300000000600FC
:10B8D0000000FA008A1F78008B1F78008C1F780008
:10B8E0000A4678000A4922000B0120004EF70700A3
:10B8F0006004E10002003200F0CFB3000100370025
:10B900000020EF004F067800CF0578004F05780043
:08B910000080FA0000000600AF
:10B888000000FA008A1F78008B1F78008C1F780050
:10B898000A467800CA4822000B01200060F707001A
:10B8A8006004E10002003200F0CFB300010037006D
:10B8B8000020EF004F067800CF0578004F0578008C
:08B8C8000080FA0000000600F8
:020000040001F9
:105BD8000000FA008A1F78008B1F78008C1F78005D
:105BE8008D1F78001400E20004003A00CAC9B3000F
:105BF800F1C30700F0CFB300280037006C00450060
:105C0800904278006A00450010427800E80145009B
:105C1800640145001A00BE008A1F78001206BE0003
:105C28000005BE000580FB00801F78000480FB0093
:105C3800801F7800931F78003EDB07006F00B100DB
:105C48004F0578006004E10002003200F0CFB30095
:105C5800120037006B0045008A1F78001045780055
:105C680058DC07004F0578006004E10002003200AC
:105C7800F0CFB300090037006D0045001004E000C4
:105C880005003200CBD907006004E10002003200B1
:105C9800F0CFB300010037000020EF00CF067800F6
:105CA8004F067800CF0578004F0578000080FA008D
:045CB80000000600E2
:020000040000FA
:10C93C000000FA008A1F78008B1F78004EB8970011
:10C94C0040BF9F006EF0970060F79F004EF097007D
:10C95C0040F79F008C9FBE00ECFB07004F06BE000B
:10C96C006004E10002003200F0CFB3001900370080
:10C97C000C05BE0066F207006004E1000200320004
:10C98C00F0CFB300130037004EBD97000CF3070037
:10C99C006004E10002003200F0CFB3000D0037005C
:10C9AC006EF59700EDF207006004E1000200320022
:10C9BC00F0CFB300070037004EF597001CF00700CE
:10C9CC006004E10002003200F0CFB3000100370038
:10C9DC000020EF00CF0578004F0578000080FA00AA
:04C9EC000000060041
:10B918000000FA008C1F78008D1F78000067210056
:10B928003050E10020D8E1000C0032008A9FBE00B0
:10B938000A06BE004A4A22000B01200041EF070018
:10B948004F05BE006004E10002003200F0CFB300F2
:10B95800050037008AB388009BB388009AB2880034
:10B96800ABB288000020EF00CF0678004F067800C1
:08B978000080FA000000060047
:10764C000000FA008A1F78008B1F78008C9FBE0008
:10765C00C80207004F06BE006004E10002003200C1
:10766C00F0CFB300040037000C05BE00E8FC0700A7
:10767C00B90207000020EF00CF0578004F05780015
:08768C000080FA000000060076
:106A1C000000FA008A1F78008B1F78006066210046
:106A2C00104078006204E10004003200BACEB300DA
:106A3C0060000700F0CFB3002E0037008A9FBE0025
:106A4C000A85FB0000B38000000001004F05BE006A
:106A5C00400120000020EC008A9FBE001085FB0046
:106A6C0000B38000000001004F05BE004001200073
:106A7C0000A0EC008A9FBE001085FB0000B38000D4
:106A8C00000001004F05BE004001200063004000E3
:106A9C001085FB0000B380000000010040B38000B3
:106AAC0051B3800064004000E080480040B388008F
:106ABC0051B38800407A2100104078006204E10054
:106ACC000B003A00F4FF2000050020008066210036
:106ADC0030016200A081620000002800010120004A
:106AEC00020040008380480040B3880051B3880006
:106AFC000020EF00CF0578004F0578000080FA00E9
:046B0C00000006007F
:10931C000000FA008C1F78008D1F78004067210038
:10932C003050E10020D8E1000C0032008A9FBE00D2
:10933C000A06BE008A4A22000B012000C0F8070072
:10934C004F05BE006004E10002003200F0CFB30014
:10935C0005003700AAB38800BBB38800BAB28800F6
:10936C00CBB288000020EF00CF0678004F067800C3
:08937C000080FA000000060069
:1095CC000000FA008B1F78008C1F78008067210048
:1095DC001050E1000B0032008A1F78000A06780058
:1095EC000A4B22000B012000AEFF07004F0578004C
:1095FC006004E10002003200F0CFB300030037003A
:10960C00CAB38800DAB288000020EF004F06780059
:0C961C00CF0578000080FA000000060076
:109568000000FA008B1F78008C1F7800A06721008C
:109578001054E1000C0032008A1F78000A46780077
:109588004A4B22000B012000250007004F057800F8
:109598006004E10002003200F0CFB300050037009C
:1095A800A06721000A487800C06521000A487800B1
:1095B8000020EF004F067800CF0578000080FA0001
:0495C8000000060099
:108A3C000000FA008B1F78008C1F7800C0672100A3
:108A4C001054E1000C0032008A1F78000A467800AE
:108A5C00CA4722000B012000F00207004F057800E6
:108A6C006004E10002003200F0CFB30005003700D3
:108A7C00C06721000A487800E06521000A487800A8
:108A8C000020EF004F067800CF0578000080FA0038
:048A9C0000000600D0
:10CDCC000000FA008B1F78008C1F78006054E10083
:10CDDC000260EF00010032000260EC0001457800B7
:10CDEC00B0672100100CE1000C0032008A1F7800A3
:10CDFC000A4678008A4B22000B01200007F207003C
:10CE0C004F0578006004E10002003200F0CFB3005F
:10CE1C0003003700B06721000A4878000020EF00BB
:10CE2C004F067800CF0578000080FA00000006005D
:00CE3C00F6
:10C3BC000000FA008A1F78008B1F78008C1F780011
:10C3CC004266210031662100206621001246780069
:10C3DC0091457800104578000DF607006004E100E7
:10C3EC0002003200F0CFB3000C0037001CC0B300C9
:10C3FC008A4822000B01200088F407006004E10049
:10C40C0002003200F0CFB30004003700F1662100C7
:10C41C0010C0B300804878000020EF004F06780071
:10C42C00CF0578004F0578000080FA000000060068
:00C43C0000
:109C1C000000FA008A1F78008C1F78008B1F7800D8
:109C2C00B3F50700CF0578004F0678006004E1001B
:109C3C0002003200F0CFB3000F0037008C1F780009
:109C4C000B457800E1F507004F0678006004E10051
:109C5C0002003200F0CFB300070037000C4578004B
:109C6C00C1F507006004E10002003200F0CFB30040
:109C7C00010037000020EF004F0578000080FA004B
:049C8C0000000600CE
:1072FC000000FA008B1F78008C1F7800C0662100FC
:10730C001054E10011003200306621001080FB00A7
:10731C00C800DD000A80FB00008070008A1F780026
:10732C00000678004A4822000B0120005D08070087
:10733C004F0578006004E10002003200F0CFB3008A
:10734C0005003700C06621000A487800206621003D
:10735C000A4878000020EF004F067800CF0578002F
:08736C000080FA000000060099
:1073D8000000FA008B1F78008C1F7800D06621000F
:1073E8001054E100110032000A80FB00C800DD00E3
:1073F800206621001080FB00008070008A1F780042
:10740800000678004A4822000B01200026080700E1
:107418004F0578006004E10002003200F0CFB300AD
:1074280005003700D06621000A4878003066210040
:107438000A4878000020EF004F067800CF05780052
:087448000080FA0000000600BC
:107374000000FA008B1F78008C1F7800E066210063
:107384001054E1000C0032008A1F78000A4678008D
:107394000A4822000B012000A20807004F057800CC
:1073A4006004E10002003200F0CFB30005003700B2
:1073B400E06621000A487800406621000A48780007
:1073C4000020EF004F067800CF0578000080FA0017
:0473D40000000600AF
:020000040001F9
:106984000000FA008A1F78008B1F78008C1F7800A3
:106994001400E20004003A00CAC9B30087C007002B
:1069A400F0CFB3001600370062014500E100450056
:1069B4001A4078008A1F78001246780091457800C2
:1069C4000045780094CC07004F0578006004E1008E
:1069D40002003200F0CFB300090037006300450025
:1069E4001004E0000500320073D607006004E100E3
:1069F40002003200F0CFB300010037000020EF00A6
:106A04004F067800CF0578004F0578000080FA0023
:046A14000000060078
:106A18000000FA008A1F78008B1F78001400E2003B
:106A280004003A00CAC9B30063C00700F0CFB3003E
:106A38000A003700E10045001A40780091457800C7
:106A480000457800AAD707006004E1000200320080
:106A5800F0CFB300010037000020EF00CF05780029
:0C6A68004F0578000080FA0000000600D6
:020000040000FA
:10C8F8000000FA008A1F78000B4578003CF8070012
:10C908006004E10002003200F0CFB30006003700F7
:10C918008CF807006004E10002003200F0CFB30099
:10C92800010037000020EF004F0578000080FA0072
:04C9380000000600F5
:10A9F8000000FA008A1F78008B1F78008C1F7800EF
:10AA08000A4678000A4A22000B01200004FB0700CE
:10AA18006004E10002003200F0CFB300010037000B
:10AA28000020EF004F067800CF0578004F0578002A
:08AA38000080FA000000060096
:10AB4C000000FA008A1F78008B1F78008C1F780099
:10AB5C001CC0B300CA4922000B012000AFFA070049
:10AB6C006004E10002003200F0CFB30001003700B6
:10AB7C000020EF004F067800CF0578004F057800D5
:08AB8C000080FA000000060041
:10FD5C000000FA008A1F78008B1F78008C1F780037
:10FD6C001400E20004003A00CAC9B30091DB07009A
:10FD7C00F0CFB3000D0037000A0678000A4F2200BE
:10FD8C000B01200080012000CF80DE00809FBE0090
:10FD9C0040F107004F00B1006004E10002003200A6
:10FDAC00F0CFB300010037000020EF004F067800C1
:10FDBC00CF0578004F0578000080FA00000006009F
:00FDCC0037
:10FDCC000000FA008A1F78008B1F78008C1F7800C7
:10FDDC001400E20004003A00CAC9B30075DB070046
:10FDEC00F0CFB3000D0037000A067800CA5122008C
:10FDFC000B01200080012000CF80DE00809FBE0020
:10FE0C0024F107004F00B1006004E1000200320051
:10FE1C00F0CFB300010037000020EF004F06780050
:10FE2C00CF0578004F0578000080FA00000006002E
:00FE3C00C6
:10FFD000F0FF2F0060E78800001E200070E7880017
:10FFE0000011200080E7880021CF210040C0B3002D
:10FFF0008048780031CF21000020EF008048780051
:020000040001F9
:100000000020EF000220EF00A0E78800B1E78800A1
:1000100081CF21000020EF00804878000020EF0011
:100020000220EF00D0E78800E1E78800E1CF21005F
:100030000020EF00804878000020EF000220EF0051
:1000400000E8880011E8880041D021000020EF007E
:10005000804878000020EF000220EF0030E88800A0
:1000600041E88800A1D021000020EF0080487800FE
:100070000020EF000220EF0060E8880071E88800AF
:1000800001D121000020EF00804878000020EF001F
:100090000220EF0090E88800A1E8880061D12100EB
:1000A0000020EF00804878000020EF000220EF00E1
:1000B000C0E88800D1E88800C1D1210010C0B30099
:1000C0008048780080CD280021202000F0E88800BA
:1000D00001E9880021D221000020EF00804878004B
:1000E0000020EF000220EF0020E9880031E98800BD
:1000F00081D2210010C0B30080487800A0CD280034
:100100002120200050E9880061E98800E1D2210027
:1001100010C0B30080487800C0CD28002120200006
:1001200080E9880091E9880041D3210010C0B30024
:1001300080487800E0CD280021202000B0E9880028
:10014000C1E98800A1D321000020EF008048780099
:100150000020EF000220EF00E0E98800F1E98800CC
:100160000020EF000220EF0000EA880011EA88007A
:1001700041D421000020EF008048780051D42100B4
:100180000020EF00804878000020EF0030EA88006F
:100190000020EF0040EA88000020EF0050EA8800CD
:1001A0000020EF0060EA8800F0FF2F0070EA88006E
:1001B000001E200080EA88000011200090EA8800DC
:1001C00041D52100B0C1B3008048780051D521004D
:1001D0000020EF00804878000020EF000220EF00B0
:1001E000B0EA8800C1EA8800A1D521000020EF0014
:1001F000804878000020EF000220EF00E0EA88004D
:10020000F1EA880001D6210020C0B30080487800C0
:1002100020CE28002120200010EB880021EB880050
:1002200061D6210020C0B3008048780060CE28004D
:100230002120200040EB880051EB8800C1D621002E
:100240000020EF00804878000020EF000220EF003F
:1002500070EB880081EB880021D721000020EF009F
:10026000804878000020EF000220EF00A0EB88001B
:10027000B1EB880081D721000020EF008048780092
:100280000020EF000220EF00D0EB8800E1EB8800B7
:10029000E1D721000020EF00804878000020EF0027
:1002A0000220EF0000EC880011EC880041D821000A
:1002B0000020EF00804878000020EF000220EF00CF
:1002C00030EC880041EC8800A1D8210080C0B30048
:1002D00080487800E0CE28002120200060EC8800D3
:1002E00071EC880001D9210090C0B30080487800EB
:1002F000E0CF28002120200090EC8800A1EC8800AD
:1003000061D9210060C0B3008048780000D1280086
:1003100021202000C0EC8800D1EC8800C1D9210048
:100320000020EF00804878000020EF000220EF005E
:10033000F0EC880001ED88000020EF000220EF00C3
:1003400010ED880021ED880061DA21000020EF0027
:100350008048780071DA21000020EF0080487800A2
:100360000020EF0040ED88000020EF0050ED8800F5
:100370000020EF0060ED88000020EF0070ED8800A5
:10038000F0FF2F0010008900001E200020008900CF
:1003900000112000300089008100220090C4B300C9
:1003A000804878009100220010C0B3008048780097
:1003B00080D228002120200050008900610089009F
:1003C000E100220010C0B30080487800A0D22800CD
:1003D0002120200080008900910089004101220035
:1003E0000020EF00804878000020EF000220EF009E
:1003F000B0008900C1008900A101220010C0B30033
:1004000080487800E0D2280021202000E000890008
:10041000F10089000102220020C3B3008048780067
:1004200020D328002120200010018900210189000B
:100430006102220010C0B3008048780060D9280013
:10044000212020004001890051018900C1022200C1
:100450000020EF00804878000020EF000220EF002D
:100460007001890081018900210322000020EF0032
:10047000804878000020EF000220EF00A0018900F2
:10048000B10189008103220010C0B30080487800C8
:1004900080D9280021202000D0018900E1018900B5
:1004A000E103220070C0B30080487800A0D9280082
:1004B000212020000002890011028900410422004D
:1004C00040C0B3008048780080DA28002120200056
:1004D0003002890041028900A104220040C0B3001B
:1004E0008048780000DB280021202000600289007D
:1004F000710289000105220030C0B30080487800F5
:1005000000DC28002120200090028900A10289003F
:100510000020EF000220EF00B0028900C102890034
:10052000A105220010C0B30080487800B105220068
:100530000020EF00804878000020EF00E0028900F2
:100540000020EF00F00289000020EF000003890086
:100550000020EF0010038900F0FF2F0060228900C7
:10056000001E2000702289000011200080228900D6
:1005700021452200D0C0B3008048780031452200D8
:100580000020EF00804878000020EF000220EF00FC
:10059000A0228900B1228900814522000020EF00BD
:1005A000804878000020EF000220EF00D022890070
:1005B000E1228900E14522000020EF008048780018
:1005C0000020EF000220EF000023890011238900A2
:1005D0004146220020C0B30080487800C0DC2800DB
:1005E000212020003023890041238900A1462200D8
:1005F0000020EF00804878000020EF000220EF008C
:100600006023890071238900014722000020EF0048
:10061000804878000020EF000220EF00902389003E
:10062000A12389006147220040C0B30080487800C0
:1006300040DD280021202000C0238900D12389002B
:10064000C14722000020EF00804878000020EF0022
:100650000220EF00F02389000124890021482200B4
:100660000020EF00804878000020EF000220EF001B
:1006700020248900312489008148220060C0B30011
:1006800080487800C0DD2800212020005024890007
:1006900061248900E14822000020EF0080487800B2
:1006A0000020EF000220EF008024890091248900BF
:1006B0004149220010C0B3008048780080DE280045
:1006C00021202000B0248900C1248900A1492200F2
:1006D0000020EF00804878000020EF000220EF00AB
:1006E000E0248900F12489000020EF000220EF00BF
:1006F0000025890011258900414A220010C0B3005D
:1007000080487800514A220010C0B3008048780029
:100710000020EF00302589000020EF0040258900EF
:10072000E05E2200502589000020EF00602589004E
:1007300000CC2500702F8900015F22000020EF000F
:1007400080487800115F22000020EF008048780088
:10075000215F22000020EF0080487800315F2200F6
:100760000020EF0080487800F0FF2F001011890072
:10077000001E200020118900001120003011890086
:100780008122220090C1B30080487800912222008B
:100790000020EF00804878000020EF000220EF00EA
:1007A0005011890061118900E12222000020EF0030
:1007B000804878000020EF000220EF0080118900BF
:1007C000911189004123220010C0B30080487800B5
:1007D000C0DE280021202000B0118900C11189004D
:1007E000A123220020C0B30080487800E0DE28006A
:1007F00021202000E0118900F1118900012422004C
:100800000020EF00804878000020EF000220EF0079
:100810001012890021128900612422000020EF00BB
:10082000804878000020EF000220EF00401289008D
:1008300051128900C12422000020EF008048780076
:100840000020EF000220EF00701289008112890061
:10085000212522000020EF00804878000020EF00D2
:100860000220EF00A0128900B11289008125220028
:100870000020EF00804878000020EF000220EF0009
:10088000D0128900E1128900E125220040C0B300A6
:100890008048780060DF28002120200000138900B4
:1008A0001113890041262200D0C0B300804878008F
:1008B000E0DF280021202000301389004113890047
:1008C000A126220050C0B3008048780080E12800B3
:1008D0002120200060138900711389000127220064
:1008E0000020EF00804878000020EF000220EF0099
:1008F00090138900A11389000020EF000220EF006F
:10090000B0138900C1138900A12722000020EF0045
:1009100080487800B12722000020EF00804878004E
:100920000020EF00E01389000020EF00F0138900A1
:100930000020EF00001489000020EF00101489004F
:10094000C0CE210080F0880021E1210010C0B3005A
:100950008048780031E1210010C0B3008048780061
:1009600041E12100F0CFB3008048780051E121003F
:10097000F0CFB3008048780060092000B0F0880014
:10098000900B2000C0F08800A00A2000D0F0880062
:1009900050042000E0F0880050332000F0F0880080
:1009A000F0E3270000F18800F0E3270010F1880051
:1009B000A03D200020F18800D016210030F18800F1
:1009C000B00120000100200040F1880051F18800B2
:1009D000F0FF2F0060F18800E1E22100B0C1B30018
:1009E00080487800F0FF2F00F1FF2F0080F1880091
:1009F00091F1880041E321000020EF008048780059
:100A000051E3210010C0B300804878000020EF00BF
:100A1000B0F188000020EF00C0F18800C00C220077
:100A2000D0F188000020EF00E0F1880020A1240030
:100A300060068900E10C22000020EF008048780069
:100A4000F10C220010C4B30080487800010D220090
:100A500010C5B30080487800110D2200F0CFB3001C
:100A600080487800C0CE210080EE880021DD210082
:100A700020C0B3008048780031DD21000020EF0065
:100A80008048780041DD2100F0CFB3008048780035
:100A900051DD2100F0CFB30080487800400C2000E9
:100AA000B0EE8800200A2000C0EE8800400420003C
:100AB000D0EE8800F0002000E0EE880090132100C6
:100AC000F0EE880001DE21000020EF008048780071
:100AD000A00120000100200010EF880021EF880015
:100AE0008014200030EF880081DE2100A0C1B30017
:100AF00080487800F0FF2F00F1FF2F0050EF8800B2
:100B000061EF8800E1DE21000020EF0080487800DE
:100B10000020EF0080EF88000020EF0090EF8800B9
:100B20000020EF00A0EF88000020EF00B0EF880069
:100B3000C0CE2100C0EF8800A1DF210030C0B3008B
:100B400080487800B1DF21000020EF008048780065
:100B5000C1DF2100F0CFB30080487800D1DF210051
:100B6000F0CFB3008048780020022000F0EF88002A
:100B7000300D200000F088004019200010F088009F
:100B8000A001200020F088000020EF0030F0880055
:100B9000C05B260040F088000020EF0050F0880085
:100BA0004006200060F08800E1E021000020EF0016
:100BB00080487800E0D4210090DF880041BF210008
:100BC00080C0B3008048780051BF210010C0B3003E
:100BD0008048780061BF2100F0CFB30080487800E2
:100BE00071BF2100F0CFB30080487800E00B2000F7
:100BF000C0DF8800C0002000D0DF8800D0022000C5
:100C0000E0DF880010012000F0DF88008011210063
:100C100000E0880021C021000020EF00804878001B
:100C2000B00120000100200020E0880031E08800B1
:100C30008014200040E08800A1C02100B0C1B300B2
:100C400080487800F0FF2F00F1FF2F0060E088005F
:100C500071E0880001C1210010C0B3008048780015
:100C60000020EF0090E088000020EF00A0E0880066
:100C70000020EF00B0E088000020EF00C0E0880016
:100C8000E0D42100D0E08800C1C1210090C0B300B1
:100C900080487800D1C1210010C0B300804878009E
:100CA000E1C12100F0CFB30080487800F1C12100FC
:100CB000F0CFB30080487800E00B200000E188000E
:100CC0004002200010E18800D002200020E18800CE
:100CD0001001200030E188006012210040E188000E
:100CE000A1C221000020EF0080487800B001200060
:100CF0000100200060E1880071E18800801420007C
:100D000080E1880021C32100B0C1B3008048780091
:100D1000F0FF2F00F1FF2F00A0E18800B1E1880073
:100D200081C3210010C0B300804878000020EF008C
:100D3000D0E188000020EF00E0E188000020EF0013
:100D4000F0E188000020EF0000E28800E0D42100FC
:100D5000E0FB8800E1F72100A0C0B30080487800E4
:100D6000F1F7210010C0B3008048780001F821009D
:100D7000F0CFB3008048780011F82100F0CFB30025
:100D800080487800E00B200010FC88000004200060
:100D900020FC8800D002200030FC880010012000D8
:100DA00040FC88008017210050FC8800C1F8210019
:100DB0000020EF0080487800B001200001002000F2
:100DC00070FC880081FC88008014200090FC880062
:100DD00041F92100B0C1B30080487800F0FF2F0036
:100DE000F1FF2F00B0FC8800C1FC8800A1F92100B0
:100DF00010C0B300804878000020EF00E0FC8800BD
:100E00000020EF00F0FC88000020EF0000FD8800CB
:100E10000020EF0010FD8800E0D4210020FD8800B4
:100E200061FA2100B0C0B3008048780071FA210057
:100E300010C0B3008048780081FA2100F0CFB300E1
:100E40008048780091FA2100F0CFB3008048780004
:100E5000E00B200050FD88005007200060FD880056
:100E6000E003200070FD88001001200080FD880054
:100E70008018210090FD880041FB21000020EF0038
:100E800080487800B001200001002000B0FD8800FB
:100E9000C1FD880080142000D0FD8800C1FB210026
:100EA000B0C1B30080487800F0FF2F00F1FF2F00A1
:100EB000F0FD880001FE880021FC21000020EF00E9
:100EC000804878000020EF0020FE88000020EF001E
:100ED00030FE88000020EF0040FE88000020EF0078
:100EE00050FE8800E0D42100A0FA880061F52100BE
:100EF000C0C0B3008048780071F5210010C0B30075
:100F00008048780081F52100F0CFB3008048780058
:100F100091F52100F0CFB30080487800E00B20006D
:100F2000D0FA8800E0082000E0FA880040002000A5
:100F3000F0FA88001001200000FB8800401E21000C
:100F400010FB880041F621000020EF008048780067
:100F5000B00120000100200030FB880041FB880028
:100F60008014200050FB8800C1F62100B0C1B300FE
:100F700080487800F0FF2F00F1FF2F0070FB880001
:100F800081FB880021F7210010C0B3008048780061
:100F90000020EF00A0FB88000020EF00B0FB8800DD
:100FA0000020EF00C0FB88000020EF00D0FB88008D
:100FB000E0D4210020F8880061F02100D0C0B30007
:100FC0008048780071F0210010C0B300804878009C
:100FD00081F02100F0CFB3008048780091F021002B
:100FE000F0CFB300804878002016200050F8880029
:100FF0002004200060F88800D002200070F88800EB
:101000001001200080F88800401C210090F8880022
:1010100041F121000020EF0080487800B00120005D
:1010200001002000B0F88800C1F88800801420007A
:10103000D0F88800C1F12100B0C1B3008048780029
:10104000F0FF2F00F1FF2F00F0F8880001F9880071
:1010500021F2210010C0B300804878000020EF008A
:1010600020F988000020EF0030F988000020EF0010
:1010700040F988000020EF0050F98800E0D42100FA
:1010800060F98800E1F22100E0C0B30080487800F8
:10109000F1F2210010C0B3008048780001F3210074
:1010A000F0CFB3008048780011F32100F0CFB300F7
:1010B00080487800E00B200090F98800B0052000FF
:1010C000A0F98800D0022000B0F9880010012000AB
:1010D000C0F98800401D2100D0F98800C1F321002B
:1010E0000020EF0080487800B001200001002000BF
:1010F000F0F9880001FA88008014200010FA8800B6
:1011000041F42100B0C1B30080487800F0FF2F0007
:10111000F1FF2F0030FA880041FA8800A1F4210085
:1011200010C0B300804878000020EF0060FA88000B
:101130000020EF0070FA88000020EF0080FA88009D
:101140000020EF0090FA8800E0D4210020038900FD
:1011500061062200F0C0B3008048780071062200CA
:1011600010C0B3008048780081062200F0CFB300A1
:101170008048780091062200F0CFB30080487800C4
:101180002013200050038900D0052000600389004F
:10119000D002200070038900100120008003890024
:1011A000D015210090038900410722000020EF00A4
:1011B00080487800B001200001002000B0038900C1
:1011C000C103890080142000D0038900C1072200D8
:1011D000B0C1B30080487800F0FF2F00F1FF2F006E
:1011E000F0038900010489002108220010C0B30027
:1011F000804878000020EF00200489000020EF00E4
:10120000300489000020EF00400489000020EF0036
:1012100050048900E0D4210060048900E108220024
:1012200000C1B30080487800F108220010C0B3006C
:101230008048780001092200F0CFB3008048780090
:1012400011092200F0CFB300804878001019200067
:1012500090048900E0052000A0048900D00220004D
:10126000B004890010012000C00489002002210080
:10127000D0048900C10922000020EF0080487800D6
:10128000B001200001002000F00489000105890060
:101290008014200010058900410A2200B0C1B3006B
:1012A00080487800F0FF2F00F1FF2F003005890003
:1012B00041058900A10A220010C0B30080487800CF
:1012C0000020EF00600589000020EF007005890014
:1012D0000020EF00800589000020EF0090058900C4
:1012E000E0D4210080ED880021DB210010C1B30093
:1012F0008048780031DB21000020EF008048780032
:1013000041DB2100F0CFB3008048780051DB2100A1
:10131000F0CFB3008048780060002000B0ED880076
:10132000B00B2000C0ED8800601D2000D0ED8800CB
:1013300010052000E0ED8800E1DB210010C0B300C3
:10134000804878000020EF0000EE880080612C00CB
:1013500010EE8800C0712E0020EE880061DC2100B4
:1013600030C0B3008048780071DC21000020EF001D
:10137000804878000020EF0040EE88000020EF0059
:1013800050EE88000020EF0060EE88000020EF00A3
:1013900070EE8800E0D42100B0DC880081B9210023
:1013A00020C1B3008048780091B921000020EF00EF
:1013B00080487800A1B92100F0CFB30080487800C0
:1013C000B1B92100F0CFB3008048780000012000BF
:1013D000E0DC8800000C2000F0DC88009007200092
:1013E00000DD88005004200010DD8800A03D2000B2
:1013F00020DD8800F0E3270030DD8800F0E32700DF
:1014000040DD8800A03D200050DD88002003210041
:1014100060DD8800B00120000100200070DD880040
:1014200081DD8800F0FF2F0090DD880041BB2100A6
:10143000B0C1B30080487800F0FF2F00F1FF2F000B
:10144000B0DD8800C1DD8800A1BB21000020EF00D5
:1014500080487800B1BB21000020EF008048780070
:101460000020EF00E0DD88000020EF00F0DD8800C4
:101470000020EF0000DE8800A00B220010DE8800B4
:1014800060A92400D0058900C10B22000020EF00D4
:1014900080487800D10B220010C4B3008048780047
:1014A000E10B220010C5B30080487800F10B220048
:1014B000F0CFB30080487800E0D4210020DE88001F
:1014C00061BC210030C1B3008048780071BC2100AC
:1014D0000020EF008048780081BC2100F0CFB300ED
:1014E0008048780091BC2100F0CFB300804878009C
:1014F000F008200050DE8800000C200060DE88002C
:101500008008200070DE88005004200080DE880003
:10151000A03D200090DE8800F0E32700A0DE8800D8
:10152000F0E32700B0DE8800A03D2000C0DE880088
:1015300040052100D0DE8800B0012000010020001D
:10154000E0DE8800F1DE8800F0FF2F0000DF880079
:1015500021BE2100B0C1B30080487800F0FF2F0009
:10156000F1FF2F0020DF880031DF880081BE2100DD
:101570000020EF008048780091BE21000020EF009D
:10158000804878000020EF0050DF88000020EF0046
:1015900060DF88000020EF0070DF8800400B220031
:1015A00080DF880040582400A0058900610B2200DC
:1015B0000020EF0080487800710B220010C4B300B7
:1015C00080487800810B220010C5B3008048780065
:1015D000910B2200F0CFB30080487800E0D42100C6
:1015E00040DB8800A1B6210040C1B30080487800EC
:1015F000B1B621000020EF0080487800C1B621007C
:10160000F0CFB30080487800D1B62100F0CFB3000E
:10161000804878004013200070DB8800000C200018
:1016200080DB8800300A200090DB88005004200016
:10163000A0DB880040822900B0DB8800F0E32700AF
:10164000C0DB880040432F00D0DB8800A03D200095
:10165000E0DB880080152100F0DB8800B00120006D
:101660000100200000DC880011DC8800F0FF2F0062
:1016700020DC880061B82100B0C1B3008048780048
:10168000F0FF2F00F1FF2F0040DC880051DC8800C4
:10169000C1B821000020EF0080487800D1B82100B7
:1016A0000020EF00804878000020EF0070DC880008
:1016B0000020EF0080DC8800600C220090DC8800B5
:1016C0000020EF00A0DC8800205A240030068900AA
:1016D000810C22000020EF0080487800910C22004D
:1016E00010C4B30080487800A10C220010C5B300DC
:1016F00080487800B10C2200F0CFB3008048780019
:10170000E0D4210060E68800E1CC210050C1B300A4
:1017100080487800F1CC210010C0B30080487800E8
:1017200001CD2100F0CFB3008048780011CD210019
:10173000F0CFB300804878006000200090E6880079
:10174000B00B2000A0E68800601D2000B0E68800F5
:1017500010052000C0E68800A1CD210010C0B30014
:10176000804878000020EF00E0E6880080612C00CF
:10177000F0E68800C0712E0000E7880021CE21002D
:1017800030C0B3008048780031CE21000020EF0047
:10179000804878000020EF0020E788000020EF005C
:1017A00030E788000020EF0040E788000020EF00CD
:1017B00050E78800E0D4210060D88800E1B0210023
:1017C00060C1B30080487800F1B0210010C0B300C0
:1017D0008048780001B12100F0CFB3008048780044
:1017E00011B12100F0CFB300804878000001200043
:1017F00090D88800000C2000A0D888009007200016
:10180000B0D8880050042000C0D88800A03D200037
:10181000D0D88800F0E32700E0D88800F0E3270064
:10182000F0D88800A03D200000D988009014210045
:1018300010D98800B00120000100200020D98800C4
:1018400031D98800F0FF2F0040D98800A1B22100D3
:10185000B0C1B30080487800F0FF2F00F1FF2F00E7
:1018600060D9880071D9880001B321000020EF0001
:101870008048780011B3210010C0B3008048780080
:101880000020EF0090D988000020EF00A0D9880048
:10189000000C2200B0D988000020EF00C0D98800D9
:1018A0008061240000068900210C22000020EF0046
:1018B00080487800310C220010C4B30080487800C2
:1018C000410C220010C5B30080487800510C220062
:1018D000F0CFB30080487800E0D42100D0D9880050
:1018E000C1B3210070C1B30080487800D1B321009A
:1018F0000020EF0080487800E1B32100F0CFB30072
:1019000080487800F1B32100F0CFB3008048780020
:101910000001200000DA8800000C200010DA8800A6
:101920009007200020DA88005004200030DA880078
:10193000A03D200040DA8800F0E3270050DA88005C
:10194000F0E3270060DA8800A03D200070DA88000C
:101950002004210080DA8800B0012000010020006E
:1019600090DA8800A1DA8800F0FF2F00B0DA880052
:1019700081B52100B0C1B30080487800F0FF2F008E
:10198000F1FF2F00D0DA8800E1DA8800E1B521000C
:101990000020EF0080487800F1B521000020EF0022
:1019A000804878000020EF0000DB88000020EF0076
:1019B00010DB8800600F220020DB88000020EF0091
:1019C00030DB880080932400B0078900810F22005B
:1019D0000020EF0080487800910F220010C4B3006F
:1019E00080487800A10F220010C5B300804878001D
:1019F000B10F2200F0CFB30080487800E0D421007E
:101A000080E3880021C7210080C1B30080487800AE
:101A100031C7210010C0B3008048780041C72100C1
:101A2000F0CFB3008048780051C72100F0CFB30059
:101A300080487800F0082000B0E38800000C200007
:101A4000C0E3880080082000D0E388005004200014
:101A5000E0E3880050862A00F0E38800F0E32700E6
:101A600000E48800503B2F0010E48800A03D2000D7
:101A700020E488008010210030E48800B0012000BC
:101A80000100200040E4880051E48800F0FF2F00AE
:101A900060E48800E1C82100B0C1B300804878004C
:101AA000F0FF2F00F1FF2F0080E4880091E4880010
:101AB00041C921000020EF008048780051C9210071
:101AC00010C0B300804878000020EF00B0E4880028
:101AD0000020EF00C0E48800000F2200D0E488005E
:101AE0000020EF00E0E48800C07C2400800789002B
:101AF000210F22000020EF0080487800310F2200E3
:101B000010C4B30080487800410F220010C5B30014
:101B100080487800510F2200F0CFB3008048780051
:101B2000E0D42100F0E4880001CA210090C1B30094
:101B30008048780011CA210010C0B30080487800A6
:101B400021CA2100F0CFB3008048780031CA2100BB
:101B5000F0CFB300804878004013200020E58800D3
:101B6000000C200030E58800300A200040E58800A5
:101B70005004200050E58800704A210060E588008C
:101B8000F0E3270070E5880070FB280080E58800FE
:101B9000A03D200090E58800600D2100A0E58800B0
:101BA000B001200001002000B0E58800C1E58800F8
:101BB000F0FF2F00D0E58800C1CB2100B0C1B300F9
:101BC00080487800F0FF2F00F1FF2F00F0E588003B
:101BD00001E6880021CC21000020EF008048780039
:101BE00031CC210010C0B300804878000020EF0005
:101BF00020E688000020EF0030E68800A00E2200DA
:101C000040E688000020EF0050E688002084240091
:101C100050078900C10E22000020EF0080487800A4
:101C2000D10E220010C4B30080487800E10E2200DB
:101C300010C5B30080487800F10E2200F0CFB30049
:101C400080487800E0D4210010E2880041C42100DF
:101C5000A0C1B3008048780051C421000020EF00EB
:101C60008048780061C42100F0CFB300804878003C
:101C700071C42100F0CFB30080487800C014200068
:101C800040E288008000200050E2880080082000A8
:101C900060E288005003200070E28800A03D200030
:101CA00080E28800F0E3270090E28800F0E327005C
:101CB000A0E28800A03D2000B0E28800300E2100A4
:101CC000C0E28800B001200001002000D0E28800BE
:101CD000E1E28800F0FF2F00F0E2880001C6210059
:101CE000B0C1B30080487800F0FF2F00F1FF2F0053
:101CF00010E3880021E3880061C621000020EF0086
:101D00008048780071C621000020EF0080487800EC
:101D10000020EF0040E388000020EF0050E388003F
:101D20002010220060E388000020EF0070E38800AC
:101D30006085240010088900411022000020EF0077
:101D4000804878005110220010C4B3008048780009
:101D50006110220010C5B300804878007110220085
:101D6000F0CFB3008048780020002200F0D0880037
:101D700001A2210060C0B3008048780011A22100B8
:101D800010C0B3008048780021A22100F0CFB3003A
:101D90008048780031A22100F0CFB300804878005D
:101DA0008011200020D18800D002200030D188008E
:101DB0008002200040D18800A1A2210010C0B30001
:101DC000804878000020EF0060D18800A03D20000E
:101DD00070D18800F0E3270080D1880021A3210082
:101DE000A0C0B3008048780031A3210050C0B300E8
:101DF000804878000020EF00A0D188004006200035
:101E0000B0D1880081A321000020EF008048780035
:101E100091A321000020EF0080487800A1A32100B9
:101E20000020EF0080487800B1A3210010C0B3006B
:101E300080487800C1A321000020EF00804878008E
:101E40000020EF00F0D188000020EF0000D28800D1
:101E50000020EF0010D288000020EF0020D2880080
:101E600020002200C0CE8800A19D210080C0B300C8
:101E700080487800B19D210010C0B30080487800F0
:101E8000C19D2100F0CFB30080487800D19D210092
:101E9000F0CFB30080487800D0172000F0CE880043
:101EA000A001200000CF8800C004200010CF8800CF
:101EB0002001200020CF8800619E210010C0B300C7
:101EC000804878000020EF0040CF8800A03D20002F
:101ED00050CF8800F0FF2F0060CF8800F0E327008C
:101EE00070CF88005011210080CF88002011210080
:101EF00090CF8800A001200001002000A0CF880022
:101F0000B1CF8800F0FF2F00C0CF8800A19F210033
:101F1000A0C1B30080487800F0FF2F00F1FF2F0030
:101F2000E0CF8800F1CF88000020EF0000D08800CB
:101F300021A021000020EF008048780031A021007E
:101F400010C0B300804878000020EF0020D0880047
:101F50000020EF0030D08800C00F220040D0880061
:101F60000020EF0050D0880080E42400E0078900C2
:101F7000E10F22000020EF0080487800F10F2200DE
:101F800010C4B300804878000110220010C5B300CF
:101F90008048780011102200F0CFB300804878000C
:101FA00020002200E0CB8800E1972100A0C0B30010
:101FB00080487800F197210010C0B3008048780075
:101FC00001982100F0CFB3008048780011982100DB
:101FD000F0CFB300804878002011200010CC88009A
:101FE000200D200020CC8800B00C200030CC8800D0
:101FF0005003200040CC880000C2200050CC880054
:10200000F0E3270060CC88007075270070CC880052
:10201000A03D200080CC8800500A210090CC880090
:10202000B001200001002000A0CC8800B1CC8800C5
:10203000F0FF2F00C0CC8800A1992100B0C1B300EF
:1020400080487800F0FF2F00F1FF2F00E0CC8800DF
:10205000F1CC8800019A21000020EF008048780030
:10206000119A210010C0B300804878000020EF00D2
:1020700010CD88000020EF0020CD8800800D2200C8
:1020800030CD88000020EF0040CD8800E0E424003F
:10209000C0068900A10D22000020EF0080487800D2
:1020A000B10D220010C4B30080487800C10D220099
:1020B00010C5B30080487800D10D2200F0CFB300E6
:1020C000804878002000220050CD8800C19A21006D
:1020D000B0C0B30080487800D19A21000020EF0002
:1020E00080487800E19A2100F0CFB3008048780062
:1020F000F19A2100F0CFB300804878002011200031
:1021000080CD8800200D200090CD8800B00C2000EC
:10211000A0CD880050032000B0CD880000002C0026
:10212000C0CD8800F0E32700D0CD880030B72E0066
:10213000E0CD8800A03D2000F0CD8800500C2100AB
:1021400000CE8800B00120000100200010CE8800E1
:1021500021CE8800F0FF2F0030CE8800819C210026
:10216000B0C1B30080487800F0FF2F00F1FF2F00CE
:1021700050CE880061CE8800E19C21000020EF0055
:1021800080487800F19C21000020EF008048780012
:102190000020EF0080CE88000020EF0090CE880065
:1021A000200D2200A0CE88000020EF00B0CE8800D5
:1021B000A02C250090068900410D22000020EF0090
:1021C00080487800510D220010C4B3008048780088
:1021D000610D220010C5B30080487800710D220007
:1021E000F0CFB300804878002000220080FF8800F4
:1021F00021FF2100C0C0B3008048780031FF2100DA
:102200000020EF008048780041FF2100F0CFB300AC
:102210008048780051FF2100F0CFB300804878005B
:1022200080022000B0FF880000022000C0FF88006C
:1022300020032000D0FF880000022000E0FF88007B
:10224000E1FF210030C0B3008048780050512100E8
:10225000000089002000220090F7880041EF210053
:10226000D0C0B3008048780051EF21000020EF007B
:102270008048780061EF2100F0CFB30080487800FB
:1022800071EF2100F0CFB300804878008002200079
:10229000C0F7880000022000D0F78800200320004B
:1022A000E0F7880000022000F0F7880001F021002C
:1022B00030C0B300804878005051210010F88800E9
:1022C00020002200A0F3880061E72100E0C0B300F5
:1022D0008048780071E721000020EF0080487800F6
:1022E00081E72100F0CFB3008048780091E721001A
:1022F000F0CFB3008048780080022000D0F388003F
:1023000000022000E0F3880020032000F0F38800A2
:102310000002200000F4880021E8210030C0B30052
:10232000804878005051210020F4880020002200CD
:1023300030F4880081E82100F0C0B30080487800C4
:1023400091E821000020EF0080487800A1E82100FA
:10235000F0CFB30080487800B1E82100F0CFB3009F
:10236000804878008002200060F48800000220008D
:1023700070F488002003200080F488000002200010
:1023800090F4880041E9210030C0B3008048780013
:1023900050512100B0F488002000220010F3880082
:1023A00041E6210000C1B3008048780051E62100D9
:1023B0000020EF008048780061E62100F0CFB300F4
:1023C0008048780071E62100F0CFB30080487800A3
:1023D0008002200040F388000002200050F38800B3
:1023E0002003200060F388000002200070F38800C2
:1023F00001E7210030C0B30080487800505121002F
:1024000090F3880020002200F0F1880001E4210010
:1024100010C1B3008048780011E421000020EF00D3
:102420008048780021E42100F0CFB3008048780094
:1024300031E42100F0CFB300804878008002200012
:1024400020F288000002200030F2880020032000E3
:1024500040F288000002200050F28800C1E4210010
:1024600030C0B300804878005051210070F28800DD
:102470002000220080F2880021E5210020C1B30065
:102480008048780031E521000020EF008048780086
:1024900041E52100F0CFB3008048780051E52100EC
:1024A000F0CFB3008048780080022000B0F28800AE
:1024B00000022000C0F2880020032000D0F2880033
:1024C00000022000E0F28800E1E5210030C0B30006
:1024D000804878005051210000F38800200022003D
:1024E00070F6880001ED210030C1B300804878000B
:1024F00011ED21000020EF008048780021ED21003F
:10250000F0CFB3008048780031ED2100F0CFB30068
:102510008048780080022000A0F688000002200099
:10252000B0F6880020032000C0F6880000022000DA
:10253000D0F68800C1ED210030C0B300804878009B
:1025400050512100F0F688002000220000F788009A
:1025500021EE210040C1B3008048780031EE210017
:102560000020EF008048780041EE2100F0CFB3005A
:102570008048780051EE2100F0CFB3008048780009
:102580008002200030F788000002200040F7880019
:102590002003200050F788000002200060F7880028
:1025A000E1EE210030C0B300804878005051210096
:1025B00080F7880020002200E0F58800E1EB210090
:1025C00050C1B30080487800F1EB21000020EF00FB
:1025D0008048780001EC2100F0CFB30080487800FB
:1025E00011EC2100F0CFB300804878008002200079
:1025F00010F688000002200020F68800200320004A
:1026000030F688000002200040F68800A1EC21008E
:1026100030C0B300804878005051210060F6880037
:1026200020002200C0F48800A1E9210060C1B300AD
:1026300080487800B1E921000020EF008048780050
:10264000C1E92100F0CFB30080487800D1E9210032
:10265000F0CFB3008048780080022000F0F48800BA
:102660000002200000F588002003200010F58800FB
:102670000002200020F5880061EA210030C0B3008C
:10268000804878005051210040F588002000220049
:1026900050F58800C1EA210070C1B300804878007D
:1026A000D1EA21000020EF0080487800E1EA210013
:1026B000F0CFB30080487800F1EA2100F0CFB300FA
:1026C000804878008002200080F588000002200009
:1026D00090F5880020032000A0F58800000220006B
:1026E000B0F5880081EB210030C0B300804878004D
:1026F00050512100D0F588002000220020C588001C
:10270000618A210080C1B30080487800718A21006D
:102710000020EF0080487800818A2100F0CFB300CC
:1027200080487800918A2100F0CFB300804878007B
:102730008002200050C588000002200060C588008B
:102740002003200070C588000002200080C588009A
:10275000218B210030C0B300804878005051210007
:10276000A0C5880020002200B0C58800818B210010
:1027700090C1B30080487800918B21000020EF00C9
:1027800080487800A18B2100F0CFB300804878000A
:10279000B18B2100F0CFB300804878008002200088
:1027A000E0C5880000022000F0C58800200320005A
:1027B00000C688000002200010C68800418C21005D
:1027C00030C0B300804878005051210030C68800E6
:1027D0002000220090C4880041892100A0C1B300DC
:1027E00080487800518921000020EF00804878005F
:1027F00061892100F0CFB300804878007189210001
:10280000F0CFB3008048780080022000C0C4880068
:1028100000022000D0C4880020032000E0C488000B
:1028200000022000F0C48800018A210030C0B300FB
:10283000804878005051210010C5880020002200F7
:1028400070C3880001872100B0C1B30080487800C0
:10285000118721000020EF008048780021872100A7
:10286000F0CFB3008048780031872100F0CFB3006B
:102870008048780080022000A0C388000002200069
:10288000B0C3880020032000C0C3880000022000DD
:10289000D0C38800C187210030C0B30080487800D1
:1028A00050512100F0C388002000220000C488009D
:1028B00021882100C0C1B300804878003188210000
:1028C0000020EF008048780041882100F0CFB3005D
:1028D0008048780051882100F0CFB300804878000C
:1028E0008002200030C488000002200040C488001C
:1028F0002003200050C488000002200060C488002B
:10290000E188210030C0B300804878005051210098
:1029100080C4880020002200F0C7880001902100B8
:10292000D0C1B30080487800119021000020EF0052
:102930008048780021902100F0CFB30080487800D3
:1029400031902100F0CFB300804878008002200051
:1029500020C888000002200030C888002003200022
:1029600040C888000002200050C88800C1902100A3
:1029700030C0B300804878005051210070C88800F2
:102980002000220080C8880021912100E0C1B3000E
:1029900080487800319121000020EF0080487800C5
:1029A00041912100F0CFB30080487800519121007F
:1029B000F0CFB3008048780080022000B0C88800C3
:1029C00000022000C0C8880020032000D0C8880072
:1029D00000022000E0C88800E191210030C0B3006F
:1029E000804878005051210000C988002000220052
:1029F00060C78800E18E2100F0C1B30080487800F4
:102A0000F18E21000020EF0080487800018F210026
:102A1000F0CFB30080487800118F2100F0CFB300D1
:102A2000804878008002200090C7880000022000C3
:102A3000A0C7880020032000B0C788000002200043
:102A4000C0C78800A18F210030C0B3008048780043
:102A500050512100E0C788002000220040C68800B5
:102A6000A18C210000C2B30080487800B18C210005
:102A70000020EF0080487800C18C2100F0CFB30027
:102A800080487800D18C2100F0CFB30080487800D6
:102A90008002200070C688000002200080C68800E6
:102AA0002003200090C6880000022000A0C68800F5
:102AB000618D210030C0B300804878005051210062
:102AC000C0C6880020002200D0C68800C18D210029
:102AD00010C2B30080487800D18D21000020EF00A3
:102AE00080487800E18D2100F0CFB3008048780065
:102AF000F18D2100F0CFB3008048780080022000E3
:102B000000C788000002200010C7880020032000B2
:102B100020C788000002200030C78800818E210075
:102B200030C0B300804878005051210050C7880061
:102B300020002200E0C28800E185210020C2B3000D
:102B400080487800F18521000020EF00804878005F
:102B500001862100F0CFB300804878001186210063
:102B6000F0CFB300804878008002200010C38800B6
:102B70000002200020C388002003200030C388000A
:102B80000002200040C38800A186210030C0B300AD
:102B9000804878005051210060C388002000220046
:102BA000F0BE8800017E210030C2B300804878006A
:102BB000117E21000020EF0080487800217E210056
:102BC000F0CFB30080487800317E2100F0CFB30011
:102BD000804878008002200020BF8800000220008A
:102BE00030BF88002003200040BF88000002200082
:102BF00050BF8800C17E210030C0B30080487800FB
:102C00005051210070BF88002000220080BF880042
:102C1000217F210040C2B30080487800317F21002D
:102C20000020EF0080487800417F2100F0CFB30002
:102C300080487800517F2100F0CFB30080487800B1
:102C400080022000B0BF880000022000C0BF8800C2
:102C500020032000D0BF880000022000E0BF8800D1
:102C6000E17F210030C0B30080487800505121003E
:102C700000C088002000220060BE8800E17C2100A6
:102C800050C2B30080487800F17C21000020EF00A2
:102C900080487800017D2100F0CFB30080487800A3
:102CA000117D2100F0CFB300804878008002200021
:102CB00090BE880000022000A0BE880020032000F3
:102CC000B0BE880000022000C0BE8800A17D2100A7
:102CD00030C0B3008048780050512100E0BE880029
:102CE0002000220040BD8800A17A210060C2B3000C
:102CF00080487800B17A21000020EF0080487800F9
:102D0000C17A2100F0CFB30080487800D17A210049
:102D1000F0CFB300804878008002200070BD8800AA
:102D20000002200080BD88002003200090BD8800A4
:102D300000022000A0BD8800617B210030C0B300EC
:102D40008048780050512100C0BD8800200022003A
:102D5000D0BD8800C17B210070C2B30080487800DC
:102D6000D17B21000020EF0080487800E17B21002A
:102D7000F0CFB30080487800F17B2100F0CFB300A2
:102D8000804878008002200000BE880000022000F9
:102D900010BE88002003200020BE88000002200012
:102DA00030BE8800817C210030C0B30080487800AC
:102DB0005051210050BE880020002200C0C1880070
:102DC000A183210080C2B30080487800B183210034
:102DD0000020EF0080487800C1832100F0CFB300CD
:102DE00080487800D1832100F0CFB300804878007C
:102DF00080022000F0C188000002200000C288008C
:102E00002003200010C288000002200020C2880099
:102E10006184210030C0B300804878005051210007
:102E200040C288002000220050C28800C1842100D6
:102E300090C2B30080487800D18421000020EF00C8
:102E400080487800E1842100F0CFB300804878000A
:102E5000F1842100F0CFB300804878008002200088
:102E600080C288000002200090C288002003200059
:102E7000A0C2880000022000B0C288008185210025
:102E800030C0B3008048780050512100D0C2880083
:102E90002000220030C1880081822100A0C2B3003E
:102EA00080487800918221000020EF00804878005F
:102EB000A1822100F0CFB30080487800B1822100C8
:102EC000F0CFB300804878008002200060C1880005
:102ED0000002200070C188002003200080C188000B
:102EE0000002200090C188004183210030C0B3005F
:102EF0008048780050512100B0C188002000220095
:102F000010C0880041802100B0C2B3008048780022
:102F1000518021000020EF0080487800618021006E
:102F2000F0CFB3008048780071802100F0CFB3006B
:102F3000804878008002200040C088000002200005
:102F400050C088002003200060C0880000022000DC
:102F500070C088000181210030C0B3008048780033
:102F60005051210090C0880020002200A0C088009D
:102F700061812100C0C2B3008048780071812100C6
:102F80000020EF008048780081812100F0CFB3005D
:102F90008048780091812100F0CFB300804878000C
:102FA00080022000D0C0880000022000E0C088001D
:102FB00020032000F0C088000002200000C188002B
:102FC0002182210030C0B300804878005051210098
:102FD00020C188002000220070D4880001A92100AF
:102FE000D0C2B3008048780011A921000020EF0072
:102FF0008048780021A92100F0CFB30080487800F4
:1030000031A92100F0CFB300804878008002200071
:10301000A0D4880000022000B0D488002003200043
:10302000C0D4880000022000D0D48800C1A92100AB
:1030300030C0B3008048780050512100F0D488009F
:103040002000220000D5880021AA2100E0C2B300A0
:103050008048780031AA21000020EF0080487800E5
:1030600041AA2100F0CFB3008048780051AA210086
:10307000F0CFB300804878008002200030D588006F
:103080000002200040D588002003200050D5880091
:103090000002200060D58800E1AA210030C0B30002
:1030A000804878005051210080D5880020002200FF
:1030B000E0D38800E1A72100F0C2B3008048780087
:1030C000F1A721000020EF008048780001A821002E
:1030D000F0CFB3008048780011A82100F0CFB300F2
:1030E000804878008002200010D488000002200070
:1030F00020D488002003200030D488000002200063
:1031000040D48800A1A8210030C0B30080487800D6
:103110005051210060D4880020002200C0D28800D5
:10312000A1A5210000C3B30080487800B1A521000B
:103130000020EF0080487800C1A52100F0CFB30047
:1031400080487800D1A52100F0CFB30080487800F6
:1031500080022000F0D288000002200000D3880006
:103160002003200010D388000002200020D3880014
:1031700061A6210030C0B300804878005051210082
:1031800040D388002000220050D38800C1A621002F
:1031900010C3B30080487800D1A621000020EF00C2
:1031A00080487800E1A62100F0CFB3008048780085
:1031B000F1A62100F0CFB300804878008002200003
:1031C00080D388000002200090D3880020032000D4
:1031D000A0D3880000022000B0D3880081A721007E
:1031E00030C0B3008048780050512100D0D388000F
:1031F0002000220040D78800A1AE210020C3B300E8
:1032000080487800B1AE21000020EF0080487800AF
:10321000C1AE2100F0CFB30080487800D1AE2100CC
:10322000F0CFB300804878008002200070D788007B
:103230000002200080D788002003200090D788005B
:1032400000022000A0D7880061AF210030C0B30089
:103250008048780050512100C0D78800200022000B
:10326000D0D78800C1AF210030C3B30080487800B8
:10327000D1AF21000020EF0080487800E1AF2100AD
:10328000F0CFB30080487800F1AF2100F0CFB30059
:10329000804878008002200000D8880000022000CA
:1032A00010D888002003200020D8880000022000C9
:1032B00030D8880081B0210030C0B3008048780049
:1032C0005051210050D8880020002200B0D688003C
:1032D00081AD210040C3B3008048780091AD21004A
:1032E0000020EF0080487800A1AD2100F0CFB300AE
:1032F00080487800B1AD2100F0CFB300804878005D
:1033000080022000E0D6880000022000F0D688006D
:103310002003200000D788000002200010D788007A
:1033200041AE210030C0B3008048780050512100E8
:1033300030D788002000220090D5880041AB2100C2
:1033400050C3B3008048780051AB21000020EF004B
:103350008048780061AB2100F0CFB300804878004E
:1033600071AB2100F0CFB3008048780080022000CC
:10337000C0D5880000022000D0D58800200320009E
:10338000E0D5880000022000F0D5880001AC2100C3
:1033900030C0B300804878005051210010D688001A
:1033A0002000220020D6880061AC210060C3B30059
:1033B0008048780071AC21000020EF008048780040
:1033C00081AC2100F0CFB3008048780091AC21009F
:1033D000F0CFB300804878008002200050D68800EB
:1033E0000002200060D688002003200070D68800EC
:1033F0000002200080D6880021AD210030C0B3003B
:103400008048780050512100A0D68800200022007A
:1034100030D2880081A4210070C3B30080487800B6
:1034200091A421000020EF0080487800A1A4210091
:10343000F0CFB30080487800B1A42100F0CFB300F2
:10344000804878008002200060D2880000022000BE
:1034500070D288002003200080D288000002200063
:1034600090D2880041A5210030C0B3008048780088
:1034700050512100B0D2880020002200C0CA88002C
:10348000A195210080C3B30080487800B195210048
:103490000020EF0080487800C1952100F0CFB300F4
:1034A00080487800D1952100F0CFB30080487800A3
:1034B00080022000F0CA88000002200000CB8800B3
:1034C0002003200010CB88000002200020CB8800C1
:1034D0006196210030C0B30080487800505121002F
:1034E00040CB88002000220050CB8800C1962100EC
:1034F00090C3B30080487800D19621000020EF00EF
:1035000080487800E1962100F0CFB3008048780031
:10351000F1962100F0CFB3008048780080022000AF
:1035200080CB88000002200090CB88002003200080
:10353000A0CB880000022000B0CB8800819721003A
:1035400030C0B3008048780050512100D0CB8800B3
:103550002000220030CA880081942100A0C3B3005B
:1035600080487800919421000020EF008048780086
:10357000A1942100F0CFB30080487800B1942100DD
:10358000F0CFB300804878008002200060CA880035
:103590000002200070CA88002003200080CA880032
:1035A0000002200090CA88004195210030C0B3007D
:1035B0008048780050512100B0CA880020002200C5
:1035C00010C9880041922100B0C3B3008048780040
:1035D000519221000020EF00804878006192210084
:1035E000F0CFB3008048780071922100F0CFB30093
:1035F000804878008002200040C988000002200036
:1036000050C988002003200060C988000002200003
:1036100070C988000193210030C0B3008048780051
:103620005051210090C9880020002200A0C98800C4
:1036300061932100C0C3B3008048780071932100DA
:103640000020EF008048780081932100F0CFB30084
:103650008048780091932100F0CFB3008048780033
:1036600080022000D0C9880000022000E0C9880044
:1036700020032000F0C988000002200000CA880052
:103680002194210030C0B3008048780050512100BF
:1036900020CA88002000220060D08800E1A021001C
:1036A000D0C3B30080487800F1A021000020EF00D3
:1036B0008048780001A12100F0CFB3008048780055
:1036C00011A12100F0CFB3008048780080022000D3
:1036D00090D0880000022000A0D0880020032000A5
:1036E000B0D0880000022000C0D08800A1A1210035
:1036F00030C0B3008048780050512100E0D08800ED
:1037000020002200B0268900814D2200E0C3B300D2
:1037100080487800914D220010C0B30080487800A6
:10372000A14D2200F0CFB30080487800B14D2200B7
:10373000F0CFB3008048780020172000E0268900F1
:1037400080032000F0268900300520000027890032
:10375000F000200010278900101B2100202789007D
:10376000614E22000020EF0080487800A001200078
:103770000100200040278900512789008014200083
:1037800060278900E14E2200A0C1B3008048780084
:10379000F0FF2F00F1FF2F0080278900912789007B
:1037A000414F220010C0B300804878000020EF0095
:1037B000B02789000020EF00C02789000020EF001B
:1037C000D02789000020EF00E02789002000220098
:1037D000401E8900A13C2200F0C3B300804878005D
:1037E000B13C220010C0B30080487800C13C2200E8
:1037F000F0CFB30080487800D13C2200F0CFB30076
:103800008048780020112000701E89007008200078
:10381000801E8900800C2000901E8900000320007B
:10382000A01E8900A03D2000B01E8900F0E3270003
:10383000C01E8900F0E32700D01E8900A03D2000B3
:10384000E01E8900500B2100F01E8900B00120000D
:1038500001002000001F8900111F8900F0FF2F00C8
:10386000201F8900613E2200B0C1B300804878006B
:10387000F0FF2F00F1FF2F00401F8900511F89002A
:10388000C13E22000020EF0080487800D13E220097
:1038900010C0B300804878000020EF00701F89003E
:1038A0000020EF00801F8900400E2200901F890039
:1038B0000020EF00A01F8900402D2500200789006F
:1038C000610E22000020EF0080487800710E220077
:1038D00010C4B30080487800810E220010C5B300E8
:1038E00080487800910E2200F0CFB3008048780025
:1038F00020002200F02789000150220000C4B300FC
:10390000804878001150220010C0B3008048780031
:1039100021502200F0CFB3008048780031502200BF
:10392000F0CFB30080487800F017200020288900ED
:10393000E004200030288900B001200040288900E0
:10394000F000200050288900B0092100602889007B
:10395000E15022000020EF0080487800A001200004
:10396000010020008028890091288900801420000F
:10397000A028890061512200A0C1B30080487800CE
:10398000F0FF2F00F1FF2F00C0288900D128890007
:10399000C15122000020EF00804878000020EF0095
:1039A000F02889000020EF00002989000020EF00A6
:1039B000102989000020EF00202989002000220022
:1039C000B01F8900813F220020C4B30080487800E6
:1039D000913F220010C0B30080487800A13F220030
:1039E000F0CFB30080487800B13F2200F0CFB300A1
:1039F00080487800A0002000E01F8900500A2000C5
:103A0000F01F89004006200000208900C00220002D
:103A100010208900A03D200020208900F0E327002D
:103A200030208900F0E3270040208900A03D2000DD
:103A3000502089009009210060208900B0012000F9
:103A4000010020007020890081208900F0FF2F00F4
:103A50009020890041412200B0C1B3008048780025
:103A6000F0FF2F00F1FF2F00B0208900C120890056
:103A7000A14122000020EF0080487800B1412200DF
:103A800010C0B300804878000020EF00E0208900DB
:103A90000020EF00F0208900E00D220000218900C5
:103AA0000020EF0010218900002C2500F00689007D
:103AB000010E22000020EF0080487800110E220045
:103AC00010C4B30080487800210E220010C5B30056
:103AD00080487800310E2200F0CFB3008048780093
:103AE00020002200D01C8900C139220030C4B3005C
:103AF00080487800D139220010C0B3008048780097
:103B0000E1392200F0CFB30080487800F13922007B
:103B1000F0CFB3008048780070082000001D8900B5
:103B2000500A2000101D890040062000201D890039
:103B3000C0022000301D8900A03D2000401D8900EA
:103B4000F0E32700501D8900F0E32700601D890085
:103B5000A03D2000701D8900400D2100801D8900BE
:103B6000B001200001002000901D8900A11D8900E6
:103B7000F0FF2F00B01D8900813B2200B0C1B300CF
:103B800080487800F0FF2F00F1FF2F00D01D890042
:103B9000E11D8900E13B22000020EF008048780011
:103BA000F13B220010C0B300804878000020EF00F5
:103BB000001E89000020EF00101E8900604A2100CD
:103BC000201E89000020EF00301E8900C02A250039
:103BD00030A58800814A21000020EF00804878004D
:103BE000914A210010C4B30080487800A14A210006
:103BF00010C5B30080487800B14A2100F0CFB3006F
:103C00008048780020002200F01989000134220049
:103C100040C4B300804878001134220010C0B300C3
:103C20008048780021342200F0CFB300804878002B
:103C300031342200F0CFB30080487800A00020008B
:103C4000201A8900C00D2000301A8900400620008B
:103C5000401A8900C0022000501A8900A03D2000AF
:103C6000601A8900F0E32700701A8900F0E327004A
:103C7000801A8900A03D2000901A8900503521004B
:103C8000A01A8900B001200001002000B01A8900AC
:103C9000C11A8900F0FF2F00D01A8900C135220017
:103CA000B0C1B30080487800F0FF2F00F1FF2F0073
:103CB000F01A8900011B8900213622000020EF0044
:103CC000804878003136220010C0B3008048780068
:103CD0000020EF00201B89000020EF00301B89002E
:103CE000004A2100401B89000020EF00501B890082
:103CF000602B250000A58800214A21000020EF004C
:103D000080487800314A210010C4B3008048780010
:103D1000414A210010C5B30080487800514A210073
:103D2000F0CFB3008048780020002200601B89009B
:103D3000E136220050C4B30080487800F1362200FA
:103D400010C0B3008048780001372200F0CFB300E4
:103D50008048780011372200F0CFB3008048780007
:103D600070082000901B8900C00D2000A01B890056
:103D700040062000B01B8900C0022000C01B890043
:103D8000A03D2000D01B8900F0E32700E01B890044
:103D9000F0E32700F01B8900A03D2000001C8900F3
:103DA00030352100101C8900B001200001002000E6
:103DB000201C8900311C8900F0FF2F00401C890065
:103DC000A1382200B0C1B30080487800F0FF2F0076
:103DD000F1FF2F00601C8900711C8900013922004D
:103DE0000020EF00804878001139220010C0B30095
:103DF000804878000020EF00901C89000020EF0030
:103E0000A01C8900A0492100B01C89000020EF00FF
:103E1000C01C890000B82400D0A48800C14921003A
:103E20000020EF0080487800D149210010C4B30081
:103E300080487800E149210010C5B300804878002F
:103E4000F1492100F0CFB300804878002000220023
:103E500070258900014B220060C4B30080487800BF
:103E6000114B220010C0B30080487800214B220083
:103E7000F0CFB30080487800314B2200F0CFB30080
:103E800080487800A0002000A0258900700820004C
:103E9000B025890010062000C025890010012000EF
:103EA000D025890010402100E0258900E14B220047
:103EB0000020EF0080487800B001200001002000C1
:103EC0000026890011268900801420002026890000
:103ED000614C2200B0C1B30080487800F0FF2F0091
:103EE000F1FF2F004026890051268900C14C220095
:103EF00010C0B300804878000020EF0070268900D1
:103F00000020EF00802689000020EF009026890025
:103F10000020EF00A02689002000220060FE88001B
:103F2000E1FC210070C4B30080487800F1FC21005E
:103F30000020EF008048780001FD210040CCB30054
:103F40008048780011FD2100F0CFB3008048780050
:103F50002000200090FE880040002000A0FE880085
:103F6000C01D2000B0FE8800A0102000C0FE880008
:103F7000A1FD210010C0B300804878000020EF00B0
:103F8000E0FE8800F0FF2F00F0FE8800F0FF2F0019
:103F900000FF8800F0FF2F0010FF880080612C00D8
:103FA00020FF880061FE21000020EF00804878009B
:103FB00071FE21000020EF00804878000020EF0013
:103FC00040FF88000020EF0050FF88000020EF0035
:103FD00060FF88000020EF0070FF880020002200B2
:103FE000202189006142220080C4B300804878000B
:103FF000714222000020EF008048780081422200B8
:10400000F0CFB3008048780091422200F0CFB30097
:1040100080487800A006200050218900B0042000CC
:1040200060218900901020007021890090012000FB
:104030008021890000412100902189004143220014
:104040000020EF0080487800D0012000010020000F
:10405000B0218900C1218900F0472000D0218900CA
:10406000C1432200D0C1B30080487800F0FF2F0088
:10407000F1FF2F00F0218900012289002144220054
:104080000020EF00804878000020EF002022890007
:104090000020EF00302289000020EF00402289003C
:1040A0000020EF0050228900C0442200400889000F
:1040B000A11022000020EF0080487800B1102200FB
:1040C00010C0B30080487800C1102200F0CFB300C8
